:020000040800F2
:10000000B80A0020010100082B270008E1210008A0
:1000100029270008090300083B3000080000000001
:10002000000000000000000000000000152B000888
:10003000B5030008000000002D2700081D2C000853
:100040001B0100081B0100081B0100081B01000820
:100050001B0100081B0100081B0100081B01000810
:100060001B0100081B0100081B0100081B01000800
:100070001B0100081B0100081B0100081B010008F0
:100080001B0100081B0100081B0100081B010008E0
:100090001B0100081B0100081B0100081B010008D0
:1000A0001B0100081B0100081B0100081B010008C0
:1000B0001B0100081B0100081B0100081B010008B0
:1000C0001B0100081B0100081B0100081B010008A0
:1000D0001B0100081B0100081B0100081B01000890
:1000E0001B0100081B0100081B010008DFF80CD0F1
:1000F00000F07EF800480047D9370008B80A002011
:100100000648804706480047FEE7FEE7FEE7FEE7B1
:10011000FEE7FEE7FEE7FEE7FEE7FEE7992C0008B4
:10012000ED000008202A04DB203A21FA02F0002129
:10013000704721FA02F3D040C2F1200291400843F7
:100140001946704740EA01039B0703D009E008C93C
:10015000121F08C0042AFAD203E011F8013B00F88C
:10016000013B521EF9D27047D2B201E000F8012BD8
:10017000491EFBD270470022F6E710B513460A4627
:1001800004461946FFF7F0FF204610BD2DE9F05F49
:100190000546002092469B468846064681464024F6
:1001A0001BE02846414647462246FFF7BBFF534621
:1001B0005A46C01A914110D311461846224600F003
:1001C00029F82D1A67EB01084F462246012000212D
:1001D00000F020F817EB00094E41201EA4F10104A5
:1001E000DFDC484631462A464346BDE8F09F000022
:1001F000064C074D06E0E06840F0010394E8070074
:1002000098471034AC42F6D3FFF774FF84DE000841
:10021000A4DE0008202A04DB203A00FA02F10020C4
:1002200070479140C2F1200320FA03F31943904034
:100230007047000070B5044600688168C943C9076B
:1002400017D1816821F00101816000F0A1FD054610
:100250000AE000BF00F09CFD401B022804D9206882
:100260008068C043C00706D020688068C043C007CC
:10027000F0D0002070BDA06A40F01000A062E06ADB
:1002800040F00100E062012070BD0000F8B50026DA
:100290000446009600688168C943C9072DD081686B
:1002A00041F001018160164816490068B0FBF1F089
:1002B00000E0401E00900028FBD100F069FD0546DB
:1002C00016E000BF00F064FD401B022810D9206832
:1002D0008068C043C0070BD0A06A40F01000A06245
:1002E000E06A40F00100E06284F824600120F8BD7B
:1002F00020688068C043C007E4D10020F8BD00003A
:10030000FC00002040420F00FEE7000010B504464C
:1003100000220121044800F035FD00F039FD0349B9
:100320002044486010BD0000000C01402C0000205B
:100330001FB50120009001900290022003906946B1
:10034000024800F027FC03F0FFF91FBD000C01403C
:100350000C4930B1012806D002280CD0032805D161
:100360000CE0094801E00848103888600020087057
:10037000C8604870704704480838F6E702480C38EF
:10038000F3E700002C000020C83F000810B5084C1F
:10039000606840B100F0FCFC6168884203D303F060
:1003A000D3F900206060BDE8104003F07DBD00007F
:1003B0002C000020704772B6FEE7000010B586B032
:1003C0000E2201A9002002F0CDFE154901988842B5
:1003D00004D014A002F056FF06B010BD01A803F02F
:1003E000BBF99DF810100246914203D0184802F064
:1003F00049FFF1E71748BDF80810194C018016486D
:10040000BDF80A2002801548BDF80C300380BDF805
:100410000E002080009013A002F034FFDCE7000003
:1004200000A77CCA5B434F4E4649475D204E6F2074
:10043000736176656420636F6E6669672C207573DF
:10044000696E672064656661756C74730D0A0000DF
:100450003CDE00081A0000201C0000201E000020C6
:10046000200000205B434F4E4649475D204C6F61A2
:100470006465643A204C44523D25642F2564204E27
:1004800054433D25642F25640D0A00000C4910B526
:1004900040F6B83008800B494FF4966008800A494E
:1004A00040F21450088009494FF42F600880002062
:1004B00002F0C4FDBDE8104005A002F0E3BE00005C
:1004C0001A0000201C0000201E0000202000002038
:1004D0005B434F4E4649475D2052657365742074F7
:1004E0006F2064656661756C74730D0A000000000E
:1004F000F0B587B00020049005900690174C164880
:100500000390174D2088ADF81000164E2888ADF8DE
:100510001200154F3088ADF814003888ADF8160079
:1005200003A803F019F98DF81800002002F086FDE9
:100530000E2203A9002002F069FE38880E229DF8E1
:1005400018108DE8070033882A88218807A002F058
:1005500099FE07B0F0BD000000A77CCA1A00002079
:100560001C0000201E000020200000205B434F4E96
:100570004649475D2053617665643A204C44523DBC
:1005800025642F2564204E54433D25642F25642087
:10059000284352433D3078253032582073697A65BC
:1005A0003D2564290D0A000002F0FCB92DE9F05F39
:1005B0008246A2F120008B465F2800D33F221149DA
:1005C00002EB82000844A0F1A00900254FF00108C9
:1005D00019F8056000240AEB050700BF08FA04F0CB
:1005E000304205D00BEB0400C1B2F8B200F069F85C
:1005F000641CE4B2072CF1D36D1CEDB2052DE7D3DA
:10060000BDE8F09FD43F00082DE9FC5F0446984602
:1006100016460D46A24201D9301B00E0A01B8146C0
:10062000A84502D9A8EB050001E0A5EB0800824629
:100630004FF0FF30B44201D2012100E001460191A8
:10064000454500D20120A9EB0A07CAF1000B009032
:100650002946204600F035F8B44201D145450ED078
:100660007800584504DD0199A7EB0A072144CCB274
:100670004845EDDA00984F442844C5B2E8E7BDE8A4
:10068000FC9F2DE9F0411646074604460D4611E051
:100690000A2A01D07A2C06D90935EDB23C46382D0C
:1006A0000BD80A2A05D029462046FFF77FFFA41D54
:1006B000E4B2761C3278002AEAD1BDE8F08102F07B
:1006C000CFB9012202F0ECB9F8B50024009490F8FB
:1006D00024202546012A12D0012280F824204A68CD
:1006E0001F23072A0DD20668776B521E02EB820287
:1006F00093409F430B6893401F43776319E00220A8
:10070000F8BD06680D2A0AD2376BD21F02EB8202AF
:1007100093409F430B6893401F43376309E0F76A98
:100720000D3A02EB820293409F430B6893401F43B4
:10073000F7620A68072306680A2A0AD3F7680A3AA2
:1007400002EB420293409F438B6893401F43F76044
:1007500008E0376902EB420293409F438B68934065
:100760001F4337610A68102A01D0112A20D1124B89
:1007700002689A4217D193681B0219D4936843F414
:10078000000393600968102912D10C490C4A0968CA
:10079000B1FBF2F101EB8101490000E0491E00913B
:1007A0000029FBD104E0816A41F02001816201242B
:1007B00080F824502046F8BD00240140FC000020B1
:1007C00040420F000068C06C704700002DE9F04106
:1007D0004FF0000704003D467ED0A06A002628B9ED
:1007E000E66284F82460204600F07EF82046FFF799
:1007F00021FDA16A01F01001014304D0A06A40F07C
:100800001000A06268E0A16A21F4885141F0020161
:10081000A1626268E169237B0A4347EA43010A4314
:10082000A1684FF48077B94208D0012906D0002191
:1008300094F814C0BCF1010F02D00AE03946F7E782
:10084000F3B1A36A43F02003A362E36A43F0010318
:10085000E3622368D3F804C02CF4694C4CEA010C21
:10086000C3F804C023689968DFF870C001EA0C017E
:1008700011439960A168B9420BD0012909D00CE05D
:10088000DFF85CC0A3690CEB43330B4343F4006116
:10089000DFE7218A0D05A5F580152168CB6A23F4D1
:1008A00070032B43CB62216889680E4B194091423B
:1008B00008D1E662A16A21F0020141F00101A162C2
:1008C000BDE8F081A06A20F0020040F01000A062B4
:1008D000E06A40F00100E0620120F1E7FDF7E1FF8E
:1008E00000E0FFFFFE0E1FFF00B585B00021009164
:1008F00001910291039100680E49884217D10E4878
:10090000816941F400718161816901F40071049190
:10091000816941F0040181618069694600F0040049
:100920000490032000900190044800F033F905B0D2
:1009300000BD0000002401400010024000080140FA
:100940002DE9F84300270D460446009700F020FAF1
:10095000804620688168C90508D5A06A40F020005B
:10096000A06284F824700120BDE8F8834168C905BD
:1009700003D4C06A10F4700F2AD0022000F020FCCB
:100980003B490968B1FBF0F62068036939490B421D
:100990004FEA61014FEAA1121FD1C3684FEA611CFF
:1009A00013EA0C0F19D103690B4225D1C06810421C
:1009B00022D1142023E0681C0AD02DB100F0E8F900
:1009C000A0EB0800A84203D920680068800725D55D
:1009D000206800688007EED52DE003690B4202D144
:1009E000C168114206D0026923490A4206D1C06893
:1009F000084203D1542002E0292000E0FC204643B5
:100A0000009816E0681C11D02DB100F0C1F9A0EBE0
:100A10000800A8420AD90098B04207D2A06A40F064
:100A20000400A06284F8247003209DE70098401C15
:100A30000090B042E6D321686FF012000860A06A0F
:100A400040F40070A06220688068C0F3424007282C
:100A50000CD1207B50B9A06A20F48070A062A06AFB
:100A6000C00403D4A06A40F00100A06200207BE72C
:100A7000FC000020244992244992240070B50446C9
:100A800090F8240001280DD0012084F8240020468D
:100A9000FFF7FCFB02004FF0000005D084F82400B3
:100AA000104670BD022070BDA16A40F20123994337
:100AB00041F48071A1621F4D23681F49AB4218D1D8
:100AC0000E6816F4702F14D0A66A46F48016A6623B
:100AD0000E68760505D5A66A26F4005646F48056BB
:100AE000A662A66AF6040AD5E66A26F00606E6625B
:100AF00006E0A66A26F48016A6625E68E9E7E06270
:100B000084F824006FF00200186020688368C3F343
:100B10004243072B05D1A84208D1096811F4702F70
:100B200004D0816841F480118160B9E7816841F4A3
:100B3000A001F9E7002801400424014010B5044653
:100B400090F82400012807D0012084F824002046D2
:100B5000FFF770FB10B107E0022010BDA16A21F47D
:100B6000885141F00101A162002184F8241010BDD8
:100B700070B5044600F00CF90546601C02D004482C
:100B80000078044400F004F9401BA042FAD370BD81
:100B9000F00000202DE9F84FDFF8B8910024A9F10A
:100BA000040B23460F2709F1040AABF1040EC9E038
:100BB0000125A5402A40AA427DD1674ED1F804C044
:100BC000ACEB0608B44532D014DCBCF1030F3AD0CC
:100BD00009DCBCF1000F2AD0BCF1010F1CD0BCF124
:100BE000020F31D11DE0BCF1110F17D0BCF1120F73
:100BF0002AD119E0B8F5881F19D006DCB8F5803F76
:100C000015D0B8F5801F1FD111E0B8F5001F0ED028
:100C1000B8F5041F18D10AE0CB6815E0CB681B1D9E
:100C200012E0CB6808330FE0CB680C330CE08B6824
:100C30002BB1012B4FF0080303D0456104E00423DE
:100C400002E0056100E00023FF2A01D8064601E02A
:100C500000F104064FEA840501D9A5F12005D6F874
:100C6000008007FA05FC28EA0C0803FA05F548EAB3
:100C70000508C6F800804D68ED0062D5374DAE69B5
:100C800046F00106AE61AD6924F0030605F00105EA
:100C90000095334D06EB050CDCF80850A607360F1F
:100CA00007FA06F825EA0805DFF8B880404503D1C1
:100CB0004FF0000817E044E0DFF8AC80404502D177
:100CC0004FF001080FE0DFF8A480404502D14FF05B
:100CD000020808E0DFF89880404502D14FF0030891
:100CE00001E04FF0040808FA06F848EA0508CCF8D5
:100CF00008804D68D9F80060ED024D4601D51643D5
:100D000000E096432E604D68DAF80060AD0255466B
:100D100001D5164300E096432E604D68DBF8006075
:100D2000AD035D4601D5164300E096432E604D6845
:100D3000DEF80060ED03754601D5164300E09643EA
:100D40002E60641C0D682A46E5407FF431AFBDE893
:100D5000F88F00000804014000001110001002404C
:100D60000000014000080140000C0140001001405B
:100D700000140140C26821EA02030A4043EA02412A
:100D8000016170470AB1016170470904FBE7000087
:100D90000148806870470000F000002070B5040032
:100DA00025D094F83D00002520B984F83C50204619
:100DB00000F04EF9242084F83D002068016821F0FD
:100DC000010101602068016841F400410160206870
:100DD000016821F40041016000F050FB4D4A616858
:100DE000914201D84C4900E04C49884201D201208F
:100DF00070BD4B492368B0FBF1F15E6826F03F06F9
:100E00000E435E606368934206D94FF4967359436C
:100E10004FF47A73B1FBF3F12368491C1E6A26F084
:100E20003F06314319626168914210D84900401E63
:100E3000B0FBF1F2521CC2F30B02042A01D20420CF
:100E400022E0B0FBF1F0401CC0F30B001CE0A268F4
:100E5000F2B301EBC10303EB0116431EB3FBF6F340
:100E60005B1C43F480431B0549D092B301EBC102E4
:100E700002EB0111401EB0FBF1F0401CC0F30B006F
:100E800040F4804040F400402168CA694CF6FF738A
:100E90009A431043C861D4E90710014320680268EF
:100EA00022F0C00211430160D4E90301014320682C
:100EB000826848F2FF339A4311438160D4E9050107
:100EC00008432168CA6822F0FF021043C86001E0AD
:100ED0000EE016E02068016841F001010160256420
:100EE000202084F83D00256384F83E50002070BD2A
:100EF00001EB4106431EB3FBF6F35B1CB3E7012095
:100F0000C2E701EB4101401EB0FBF1F0401CC0F311
:100F10000B00B7E7A086010080841E0000093D0099
:100F200040420F002DE9F84F1F4690468A4604467E
:100F3000DDF82890FFF72CFF054694F83D002028A7
:100F40007FD11923012240492046009501F0DAF9AA
:100F5000002876D194F83C00012872D0012084F852
:100F60003C0020680168C90703D1016841F0010114
:100F700001602068016821F400610160212084F88B
:100F80003D00102084F83E0000262664C4F824802A
:100F90006785608D20852D48E0622B464A46514684
:100FA000204601F035F990B92068416980690090C8
:100FB00036E02A464946204601F04AFA50B1206CF4
:100FC000042804D12068016841F400710160012007
:100FD000BDE8F88F606A216800780861606A401C8B
:100FE0006062618D491E6185218D491E89B221850E
:100FF00022685369DB435B070BD451B10078106161
:10100000606A401C6062608D401E6085208D401EBD
:1010100020852A464946204601F048F90028CED1CD
:10102000208D0028C5D154F83D0B016841F40071B2
:101030000160202004F81E09E67766770020C7E7E4
:10104000FFE70220C4E70000020010000000FFFFDD
:1010500010B586B0002100910191029103910068C2
:101060000F4988421AD10F4CA06940F00800A061D6
:10107000A069694600F008000490C020009012208A
:101080000190032003900848FFF784FDE06940F4D5
:101090000010E061E06900F40010049006B010BD9B
:1010A0000054004000100240000C014002488168DA
:1010B0000278114481607047F0000020074810B5A5
:1010C000016841F010010160032000F067F80F2073
:1010D00000F006F800F024F8002010BD00200240C7
:1010E00070B50D4D04464FF47A712878B1FBF0F0DD
:1010F0000A490968B1FBF0F000F0D3FD48B9102CA3
:1011000007D200222146501E00F028F800206C6013
:1011100070BD012070BD0000F0000020FC00002028
:101120000C4808B5816941F001018161816901F0D4
:1011300001010091C16941F08051C161C06900F0B5
:10114000805000900448416821F0E06141F0007156
:10115000416008BD0010024000000140F0B40E4B99
:101160001B680C46C3F30223C3F10705042D00D905
:101170000425191D072901D2002300E0DB1E0126EA
:1011800006FA05F1491E214099409E40761E164000
:101190003143F0BC02F086B80CED00E0064900F0E7
:1011A000070208684FF6FF03184040EA0220034A8E
:1011B00010430860704700000CED00E00000FA05E5
:1011C00010B501460020234C012922D0022939D034
:1011D00010291DD161682268D20119D51E48C1F3BA
:1011E0008342C903805C0AD561681B4AC1F3404150
:1011F000921E515C194AB2FBF1F1484301E01849D3
:1012000048436168490203D440000321B0FBF1F078
:1012100010BD226AC2F30121012903D1920701D531
:10122000C80310BD022905D1626A920702D549F6AA
:10123000404010BD0329FCD121688903F9D54FF244
:10124000244010BD00F02AF96168C1F38131491CC6
:101250004900DBE700100240C3DD000800127A00FD
:1012600000093D002DE9F84305460078354CC007DC
:1012700054D0E0690026C00008D4E06940F08050F6
:10128000E061E069012600F0805000902E4801687E
:10129000C90512D40168804641F480710160FFF7EE
:1012A00077FD074605E000BFFFF772FDC01B64280D
:1012B00023D8D8F80000C005F6D5206A10F4407095
:1012C00021D0A98801F4407181421CD0206A1F49B5
:1012D000012220F440700A6000220A602062C007E8
:1012E00011D0FFF755FD074641F2883808E000BFEE
:1012F000FFF74EFDC11B414502D90320BDE8F8832D
:10130000206A8007F4D5206A696820F44070084399
:1013100020621EB1E06920F08050E06128788007EB
:1013200005D56068A96820F44040084360602878CB
:10133000C00605D56068E96820F480000843606055
:101340000020DBE7001002400070004040044242F1
:101350002DE9F0470F46050061D0434E306800F09C
:101360000700B84209D2306820F0070038433060E7
:10137000306800F00700B84251D128683B4C810723
:1013800012D5400703D5606840F4E06060602878BB
:10139000000703D5606840F4605060606068A96829
:1013A00020F0F000084360602878C00728D0686803
:1013B000012810D02168022810D0890700292EDAD0
:1013C000616821F0030101436160FFF7E1FC8046A1
:1013D00041F288390DE021688903EFE78901EDE7E3
:1013E000FFF7D6FCA0EB0801494502D90320BDE870
:1013F000F0876068696800F00C00B0EB810FEFD1F6
:10140000306800F00700B8420BD9306820F00700C0
:1014100038433060306800F00700B84201D0012046
:10142000E5E72878400705D56068E96820F4E060C2
:10143000084360602878000706D56068296920F4B1
:10144000605040EAC100606000F038F86168084A06
:10145000C1F30311515CC8400649086006480068A2
:10146000FFF73EFE0020C2E70020024000100240CD
:10147000D3DD0008FC000020F400002004480549EA
:1014800000684968044AC1F30221515CC8407047B2
:10149000FC00002000100240E3DD0008044805497C
:1014A00000684968044AC1F3C221515CC8407047D2
:1014B000FC00002000100240E3DD00080E4A5168E5
:1014C0000E4801F00C03042B11D0082B0FD10C484F
:1014D000C1F38343C903C05C0AD55168084AC1F30C
:1014E0004041921E515C054A5043B0FBF1F07047F9
:1014F00004494843704700000010024000127A007F
:10150000B1DD000800093D002DE9F84F040070D05E
:101510002078C04DC00749D06868C0F38100012819
:1015200007D06868C0F38100022809D16868C00349
:1015300006D52868800339D560680028E7D035E0F3
:101540006068B0F5803F0BD010B1B0F5A02F11D07E
:10155000286820F480302860286820F4802002E089
:10156000286840F480302860606890B1FFF710FC74
:1015700006460AE0286840F480202860F0E700BFB3
:10158000FFF706FC801B642873D828688003F7D512
:101590000CE0FFF7FDFB064605E000BFFFF7F8FB98
:1015A000801B6428F0D828688003F7D420789A4EEE
:1015B00080074FF001094FF0000839D5686810F036
:1015C0000C0F07D06868C0F38100022809D1686851
:1015D000C00306D42868800714D52069012808D1E3
:1015E00010E02069B0B1C6F80090FFF7D1FB0746C4
:1015F00005E00AE1FFF7CCFBC01B0228C4D828682D
:101600008007F7D52868616920F0F80040EAC1003A
:1016100028600DE0C6F80080FFF7BAFB074604E03B
:10162000FFF7B6FBC01B022823D828688007F7D431
:10163000207800072CD57948A169D9B1C0F800906D
:10164000FFF7A6FB074604E0FFF7A2FBC01B02283A
:101650000FD8686A8007F7D571484FF4FA510068CF
:10166000B0FBF1F0009000BF0098411E0091FAD24B
:101670000EE080E0C0F80080FFF78AFB074604E038
:10168000FFF786FBC01B022875D8686A8007F7D46D
:101690002078400760D5E8690027C00008D4E869D1
:1016A00040F08050E861E869012700F08050009028
:1016B0005C480168C90513D40168834641F4807110
:1016C0000160FFF765FB824606E000BFFFF760FBA5
:1016D000A0EB0A0064284ED8DBF80000C005F5D561
:1016E000E06801280AD008B1052813D0286A20F044
:1016F00001002862286A20F0040002E0286A40F015
:1017000001002862E06841F2883B98B1FFF740FB96
:1017100082460BE0286A40F004002862EEE700BF32
:10172000FFF736FBA0EB0A0159455AD8286A800713
:10173000F6D50CE0FFF72CFB824605E0FFF728FB0F
:10174000A0EB0A0159454CD8286A8007F6D41FB18E
:10175000E86920F08050E861E06988B36968C1F306
:101760008101022944D00228C6F8608004D0FFF726
:101770000FFB044638E034E0FFF70AFB074604E0BD
:10178000FFF706FBC01B02282BD828688001F7D47E
:10179000206AB0F5803F05D16868A16820F4003068
:1017A00008436860D4E908010843696821F47411AA
:1017B00008436860C6F86090FFF7EAFA044606E05E
:1017C00025E000BFFFF7E4FA001B022809D82868CB
:1017D0008001F7D51BE000BFFFF7DAFA001B0228F3
:1017E00002D90320BDE8F88F28688001F4D40EE008
:1017F0000128F7D06868226A00F48031914204D150
:10180000616A00F47010884201D00120EAE70020EC
:10181000E8E700000010024000004242800442421B
:10182000FC0000200070004070B5040009D0606A20
:10183000002540B125616561A56294F8510040B171
:101840000CE0012070BD6068B0F5827FF4D0E561E6
:10185000F2E784F85050204600F040F8022084F867
:1018600051002068016821F040010160A0882189B1
:1018700000F4827001F404410843A18901F400617D
:101880000843217C01F002010843217D01F00101A0
:101890000843218B01F400710843217F01F03801D6
:1018A000084394F8201001F080010843218D01F4D1
:1018B0000051084321680860A069042101EA104032
:1018C000216848602068C16921F40061C1616565D3
:1018D000012084F85100002070BD000030B585B0B3
:1018E00000240094019402940394006814498842EF
:1018F00023D11448816941F480518161816901F4E7
:1019000080510491816941F00401816180690E4D2B
:1019100000F004000490A020009002200190032019
:10192000039069462846FFF735F94020CDE90004C9
:10193000694628460294FFF72DF905B030BD000036
:101940000030014000100240000801402DE9F84F2E
:10195000984616468A460446FFF71AFA814694F8D6
:10196000510001281ED1BAF1000F73D0002E71D0A2
:1019700094F85000012815D0012784F850700320F6
:1019800084F8510000256565C4F830A0A686E68677
:10199000A563A587E58765642564A068B0F5004F59
:1019A00003D00CE00220BDE8F88F2068016821F028
:1019B000400101602068016841F4804101602068B5
:1019C0000168490603D4016841F040010160E06804
:1019D000B0F5006F606803D048B3012E27D047E010
:1019E00008B1012E1FD1206B21680088C86006E075
:1019F00020688168890709D5216B0988C160206B3F
:101A0000801C2063E08E401EE0860CE0FFF7C0F9EA
:101A1000A0EB0901414503D3B8F1FF3F03D035E006
:101A2000B8F1000F32D0E08E0028E1D123E0206B26
:101A300021680078087306E02068816889070AD564
:101A4000216B09780173206B401C2063E08E401EDF
:101A5000E0860DE02BE0FFF79BF9A0EB0901414583
:101A600003D3B8F1FF3F03D010E0B8F1000F0DD061
:101A7000E08E0028E0D14A464146204600F01CFF97
:101A800008B120206065A06830B109E084F8517089
:101A900084F85050032086E72068C1688068009071
:101AA00084F8517004F8505F60680028F3D001207A
:101AB00079E72DE9FF4F81B01D46934604464FF06C
:101AC00001090E9EFFF764F9074694F8510061681A
:101AD000012806D0B1F5827F3CD1A168C9BB04289A
:101AE00038D10298002871D0BBF1000FFBD0002D37
:101AF000F9D094F8500001282CD04FF0010A84F856
:101B000050A094F85100042802D0052084F8510018
:101B10004FF00008C4F85480C4F838B0E587A587B2
:101B200002992163E586A586C4F84080C4F8448004
:101B300020680168490603D4016841F04001016052
:101B4000E068B0F5006F606808D0F0B3012D49D0AF
:101B500081E0FFE7022005B0BDE8F08F08B1012D5C
:101B600039D1206B21680088C860206B801C2063FD
:101B7000E08E401EE0862EE02068816889070FD540
:101B8000E18E69B1B9F1010F0AD1216B0988C160F9
:101B9000206B801C2063E08E401EE0864FF0000921
:101BA00020688168C9070CD0E18F51B1C068A16B72
:101BB0000880A06B801CA063E08F401EE0874FF080
:101BC0000109FFF7E5F8C01B01E00BE067E0B04258
:101BD00001D3701C50D1E08E0028CDD1E08F0028B9
:101BE000CAD13EE0206B216800780873206B401C4E
:101BF0002063E08E401EE0862DE020688168890722
:101C00000FD5E18E69B1B9F1010F0AD1216B0978C5
:101C10000173206B401C2063E08E401EE0864FF075
:101C2000000920688168C9070CD0E18F51B1C068F4
:101C3000A16B0870A06B401CA063E08F401EE08782
:101C40004FF00109FFF7A4F8C01BB04202D3701C8B
:101C500001D011E086B1E08E0028CED1E08F0028BF
:101C6000CBD13A463146204600F026FE50B1202026
:101C7000606584F8508012E084F851A084F85080A8
:101C8000032068E7A06818B92068C16880680090E0
:101C900084F851A084F85080606D0028F1D00120B4
:101CA00059E710B5401EB0F1807F01D3012010BD6F
:101CB0004FF0E02460610F21601701F0F3FA00207B
:101CC000A06107202061002010BD000070B590F8D1
:101CD0003C20012A26D0012480F83C40022280F8D2
:101CE0003D2003685A689D6822F070060A683243F6
:101CF0005A600D4B02689A4208D0B2F1804F05D06D
:101D00000A4B9A4202D00A4B9A4204D1496825F004
:101D100080031943916080F83D40002180F83C1019
:101D2000084670BD022070BD002C01400004004038
:101D30000008004010B5040003D094F83D0010B135
:101D400007E0012010BD002084F83C00204600F090
:101D50001FF8022084F83D00211D206800F09EFF3E
:101D6000012084F8460084F83E0084F83F0084F89F
:101D7000400084F8410084F8420084F8430084F86D
:101D8000440084F8450084F83D00002010BD0000A8
:101D900008B50068B0F1804F08D10548C16941F02D
:101DA0000101C161C06900F00100009008BD0000A0
:101DB0000010024070B5044690F83C000025012850
:101DC00017D0012684F83C60022084F83D0020688A
:101DD000826822F0770222F47F42826008685028ED
:101DE00038D00DDC20284FD005DC90B3102811D15D
:101DF0004AE0022070BD302846D040280AD13BE09E
:101E000060282FD070280DD0B0F5805F03D0B0F5DA
:101E1000005F12D0012584F83D60002084F83C006A
:101E2000284670BDCB68D1E90121206800F072FF1F
:101E30002068816841F0770109E0CB68D1E9012190
:101E4000206800F067FF2068816841F4804181606C
:101E5000E1E719E0CA684968206801F00FF85021ED
:101E6000206806E0CA684968206801F018F8602117
:101E7000206800F059FFCEE7CA684968206800F082
:101E8000FDFF40212068F4E7226801461046F0E794
:101E900070B5044690F83C0000260D4601280FD08E
:101EA000012084F83C006AB1042A1DD0082A2FD0F2
:101EB0000C2A3FD00126002084F83C00304670BD3B
:101EC000022070BD206800F037FF2068816941F072
:101ED000080181612068816921F004018161206825
:101EE00081692A69114311E0206800F04DFF2068E4
:101EF000816941F4006181612068816921F4806118
:101F00008161206881692A6941EA02218161D2E701
:101F1000206800F065FF2068C16941F00801C161D7
:101F20002068C16921F00401C1612068C1692A6982
:101F3000114311E0206800F07FFF2068C16941F47F
:101F40000061C1612068C16921F48061C1612068BC
:101F5000C1692A6941EA0221C161ACE710B50400F8
:101F600003D094F83D0010B107E0012010BD00201F
:101F700084F83C00204600F01EF8022084F83D0062
:101F8000211D206800F08AFE012084F8460084F8B4
:101F90003E0084F83F0084F8400084F8410084F853
:101FA000420084F8430084F8440084F8450084F833
:101FB0003D00002010BD704770B5040004D094F8B7
:101FC0004100002510B106E0012070BD84F84050AA
:101FD000204600F023F8242084F841002068C168DE
:101FE00021F40051C160204600F092FF2068016991
:101FF00021F4904101612068416921F02A01416189
:102000002068C16841F40051C1606564202084F8F3
:10201000410084F842006563002070BD2DE9F04363
:1020200085B0002506460095019502950395006848
:102030002849294C294F4FF002084FF003098842E4
:1020400020D1A06940F48040A061A06900F48040E4
:102050000490A06940F00400A061A069CDF80C9044
:1020600000F0040004904815CDE9000869463846A0
:10207000FEF790FD2015CDE900056946384602952A
:10208000FEF788FD16493068884220D1E06940F4A7
:102090000030E061E06900F400300490A06940F095
:1020A0000400A061A069694600F0040004900420C7
:1020B000CDE90008CDF80C903846FEF76BFD0820FE
:1020C000CDE90005694638460295FEF763FD05B087
:1020D000BDE8F083003801400010024000080140D4
:1020E000004400402DE9F843044690F8410098462A
:1020F00016460D46202802D00220BDE8F88385B19F
:102100007EB100206064212084F84100FEF740FE8B
:10211000A6848146E684A0682027B0F5805F02D0BF
:1021200003E00120E9E7206910B12E4600250EE00A
:1021300000260CE08021204600F046FFA8B9C6B179
:1021400016F8010B21684860E08C401EE084E08CAA
:102150004B464FF00002CDF800800028EAD14FF046
:102160004001204600F030FF40B184F84170032068
:10217000C3E735F8020BC0F30800E3E784F84170C9
:102180000020BAE7054800680168890602D5406862
:10219000C0B270474FF0FF3070470000700600205B
:1021A00010B500F0A5FABDE8104001A001F06AB832
:1021B0005B48432D30355D20426C7565746F6F74DC
:1021C00068207265616479206F6E205553415254C6
:1021D0003220283936303020384E31290D0A00009F
:1021E000FEE701684A69D24352050FD46FF480625A
:1021F0004A61002140F8301F202242738173026936
:1022000042F0040202610173012070470020704710
:10221000F8B50446C06A1E460D461746082807D082
:10222000012805D010F5803F02D0206B122804D180
:102230002068016841F480710160134600224FF06C
:1022400001112046009600F05DF840B1206800685A
:10225000C00502D54FF4007020640320F8BD20694A
:10226000B0F5804F0ED00620216800EAD51040F06E
:10227000F000086133463A460B49204600F08AF8E0
:1022800078B902E005F0FE0000E0E8B221680861DC
:10229000054933463A46891F204600F07BF800285E
:1022A000DCD00120F8BD00000800010070B5164622
:1022B0000D4604461EE02046FFF793FF08B10120BB
:1022C00070BD681C16D0FEF763FD801BA84200D8C5
:1022D00085B920684069C04340070BD5002044F809
:1022E000300F20216173A073216941F02001216129
:1022F0002073E4E720684069C0434007DBD4002036
:1023000070BD00002DE9F047984617460D4604467B
:10231000C1F30746DDF820902AE000BFB8F1FF3F87
:1023200026D0FEF735FDA0EB0901414502D8B8F1F2
:10233000000F1DD12068012E16D0806925EA00000B
:102340000004000C12D00020B84211D1002044F843
:10235000300F20216173A073216941F020012161B8
:1023600020730120BDE8F0874069E7E70120EBE733
:102370002068012E0AD0806925EA00000004000CC4
:1023800006D00020B842C9D00020EBE74069F3E74F
:102390000120F7E72DE9F047984616460D4604461A
:1023A0004FF000094FF0200AC1F3074723E02068EF
:1023B0004069C043400515D42068016841F40071AC
:1023C000016021686FF480604861C4F8309084F83F
:1023D0003DA084F83E90216C41F00401216484F812
:1023E0003C9021E0701C06D0FEF7D2FCA0EB080068
:1023F000B04203D816B1012F1FD021E02068012F71
:1024000015D0806925EA00000004000C18D000BF38
:1024100044F8309F84F80DA084F80E90216941F0B3
:102420002001216184F80C900120BDE8F08740690B
:1024300025EA00000004000CEAD12068406901E0B0
:102440002068806925EA00000004000CAFD1ECE7A9
:1024500070B516460D4604461EE02046FFF7C1FE45
:1024600008B1012070BD681C16D0FEF791FC801BDE
:10247000A84200D885B920684069C04300060BD542
:10248000002044F8300F20216173A073216941F0CE
:10249000200121612073E4E720684069C043000601
:1024A000DBD4002070BD0000FEB500241648009467
:1024B0000194144902940160891581600125057316
:1024C0000475022606614FF460214460C161FEF785
:1024D0007DF908B1FDF76FFF07200094CDE90150A9
:1024E00069460948FEF7F0F808B1FDF764FFCDE949
:1024F000005669460448FEF7E7F8002801D0FDF7CA
:102500005AFFFEBD002401400405002070B586B0CE
:1025100000241C480094019402940394816941F0C2
:1025200010018161816901F010010491816941F01C
:1025300020018161816901F020010491816941F0EC
:1025400004018161816901F004010491816941F014
:102550000801816180690C4E00F008004FF40055BD
:102560000490002229463046FEF70CFC012000951D
:10257000CDE901040220039069463046FEF70AFBCC
:1025800006B070BD00100240001001400D4810B5AB
:102590000B4901600C49416000214FF48042816089
:1025A000C0E9031241618161C1610162FEF7F6FB7E
:1025B000002803D0BDE81040FDF7FDBE10BD0000AF
:1025C0000054004034050020801A0600104810B561
:1025D0000E4901604FF48271416000218160C16049
:1025E0004FF400720161C0E905120822C0E9072119
:1025F000416281620A21C162FFF716F9002803D007
:10260000BDE81040FDF7D7BE10BD0000003001400E
:102610008805002010B58EB0002407940894099412
:102620000A940B941C2168460C94FDF7A4FD2148E4
:102630004FF0804101604721C0E9011440F2E731C9
:10264000C0E903148461FFF775FB08B1FDF7B3FE21
:102650004FF48050079007A91648FFF7ABFB08B16D
:10266000FDF7A9FE1348FFF779FC08B1FDF7A3FEBB
:102670000B940BA90F480C94FFF728FB08B1FDF74A
:102680009AFE6020CDE900040294002269460948C0
:102690000494FFF7FDFB08B1FDF78DFE08226946A3
:1026A0000448FFF7F5FB002801D0FDF784FE0EB0CB
:1026B00010BD0000E00500200C4810B50A4901607B
:1026C0004FF4E1314160002181600C22C160C0E91A
:1026D00004128161C161FFF76FFC002803D0BDE8DF
:1026E0001040FDF768BE10BD0038014028060020EC
:1026F0000C4810B50A4901604FF4165141600021A1
:1027000081600C22C160C0E904128161C161FFF7E0
:1027100053FC002803D0BDE81040FDF74CBE10BDAF
:102720000044004070060020FEE7FEE7704700000E
:102730000148C0787047000040000020014890F92F
:1027400004007047400000200148007870470000F6
:102750004000002070B5044C00252570FEF718FBE2
:10276000A060E57070BD0000400000202DE9F0473A
:10277000154689460446FEF70BFB0123022700227B
:102780004C494FF0030C41F288364FF00408012DFC
:1027900004D0022D09D0032D1AD00FE08D786DB929
:1027A0000D784D7081F800C004E08D7835B90D7852
:1027B0004D700B708519C1E902058B708D78A5B13C
:1027C000CD68A8420FD34D780D7088608A700CE0F8
:1027D0008D78002DF4D10D784D700F708519C1E9F9
:1027E00002058B70ECE78D78ADBB8D68451BB5425B
:1027F00031D30D78B9F1020F02D0042D07D008E0D3
:10280000022D06D0042D04D081F8008000E00A706B
:1028100088606CB90D78042D0AD00C6904B9086180
:102820000C69041BB44216D3022D14D00F7011E0B2
:102830000A610D78022D01D10A7088605CB10C78B4
:10284000022C08D0042C06D02CB18C68041BB44296
:1028500001D30A708860FF240C710D784FF4FA746C
:10286000052D05D2DFE805F003060D151D00CA7021
:10287000BDE8F087CB708B68C01AA042F8D20A710D
:10288000F6E7CF708A68801AA042F1D281F804C0BE
:10289000EEE781F803C08A68801AA042E8D20B7183
:1028A000E6E781F803808A68801AA042E0D20F71BF
:1028B000DEE7000040000020F8B515460E460B4646
:1028C000009204460122022100F010F840B933467C
:1028D000002280212046009500F008F8002804D04E
:1028E000606D40F0200060650320F8BD2DE9F843DD
:1028F0001E46914688460446089DFEF749FA401B4D
:10290000351AFEF745FA074625480068C0F3CB3074
:10291000684338E0701C37D0FEF73AFAC01BA84273
:1029200003D215B1009860B32CE02068416821F013
:10293000E00141606068B0F5827F0BD1A068B0F51E
:10294000004F02D0B0F5806F04D12068016821F0FB
:1029500040010160A06AB0F5005F09D120680168FC
:1029600021F4005101602068016841F400510160C8
:10297000012084F85100002084F850000320BDE8B5
:10298000F8830025401E00902068816838EA010025
:1029900004D000214945BDD10020F0E70121F9E72D
:1029A000FC0000204FF480610148FDF7E4BB00000B
:1029B0000401002010B5AE2000F088F8D52000F00A
:1029C00085F8802000F082F8A82000F07FF83F20F2
:1029D00000F07CF8D32000F079F8002000F076F8C1
:1029E000402000F073F88D2000F070F8142000F003
:1029F0006DF8202000F06AF8022000F067F8A120AE
:102A000000F064F8C82000F061F8DA2000F05EF809
:102A1000122000F05BF8812000F058F8CF2000F081
:102A200055F8D92000F052F8F12000F04FF8DB20E3
:102A300000F04CF8402000F049F8A42000F046F8DF
:102A4000A62000F043F82E2000F040F8AF2000F060
:102A50003DF8FFF7A7FFBDE8104000F001B8000007
:102A60002DE9F0410D4F002444F0B00000F02EF8A5
:102A7000002000F02BF8102000F028F807EBC41617
:102A80000025705D00F032F86D1CEDB2802DF8D39A
:102A9000641CE4B2082CE7D3BDE8F08104010020F7
:102AA00010B580280FD240290DD2CB0800EBC313FC
:102AB0000548012401F007018C40C15C0AB12143A3
:102AC00000E0A143C15410BD040100201CB5002149
:102AD00001918DF805000A200090022301AA7821B7
:102AE0000148FEF71FFA1CBD340500201CB507A1E4
:102AF0000223096801918DF805000A20009001AABF
:102B000078210348FEF70EFA1CBD000040000000CB
:102B100034050020704700000148408970470000DC
:102B200018000020064841894288914201D90020BE
:102B300070478088814201D202207047012070478F
:102B4000180000200148808970470000180000200C
:102B500006488189C288914201D2022070470089CB
:102B6000814201D9002070470120704718000020E1
:102B700008B5054801890091C3888288418803A06F
:102B800000F080FB08BD0000180000205B53454E9C
:102B9000534F525D20454D412066696C746572202B
:102BA00072656164792C207468726573686F6C64F7
:102BB000733A204C44523D25642F2564204E5443E3
:102BC0003D25642F25640D0A0000000010B500208B
:102BD00000F0D8FD0446012000F0D4FD0E490A782B
:102BE000A2B1CA8904EB440302EB82021A44D20860
:102BF000CA810A8A00EB400002EB82021044C0083E
:102C00000882C8894881088A888110BDCC810882E1
:102C100001200870F5E7000018000020FEF746BA12
:102C200030B593B028216846FDF7A5FA14210AA80B
:102C3000FDF7A1FA002501200F95109511950104CB
:102C400012958DE8230004904FF4E010CDE90810B0
:102C5000022407946846FEF757FC08B172B6FEE7F7
:102C60000AA90F2081E831004FF48060CDE90D05FD
:102C700002210AA8FEF76CFB08B172B6FEE74FF41A
:102C8000004011900F940FA8FEF7ECFA002801D035
:102C900072B6FEE713B030BD70470000F0B50268B1
:102CA000194B1A4C1A4D4FF08047984205D0B84244
:102CB00003D0A04201D0A84203D122F070064A6896
:102CC0003243984205D0B84203D0A04201D0A84276
:102CD00003D122F44074CA6822434C6922F0800276
:102CE000224302608A68C2620A688262984201D105
:102CF00009690163012141610169C90703D00169C3
:102D000021F001010161F0BD002C014000040040F0
:102D10000008004010B5846842EA032224F47F448E
:102D20000A432243826010BD826822F070020A4387
:102D300042F007018160704730B5036A026A22F0F1
:102D4000010202624268846924F073050C682C4316
:102D500023F002058B682B430A4DA8420BD123F0C8
:102D60000805CB6822F440722B434D6923F004031D
:102D700015438A692A43426084614968416303625A
:102D800030BD0000002C014030B5026A036A23F018
:102D900010030362436884690D6824F4E64444EA3E
:102DA00005248D6822F0200242EA05120B4DA8424C
:102DB0000ED1CD6822F0800242EA05124D6923F45B
:102DC000406343EA85038D6922F0400243EA8503AC
:102DD0004360846149688163026230BD002C014018
:102DE00030B5036A026A22F4807202624268C469E2
:102DF00023F4007324F073050C682C438D6843EAB8
:102E000005230C4DA8420ED1CD6823F4006343EA9C
:102E100005234D6922F4405242EA05128D6923F4DC
:102E2000806342EA05124260C4614968C16303627B
:102E300030BD0000002C014030B5046A026A22F463
:102E4000805202624268C3690D6823F4E64343EA94
:102E500005238D6824F4005444EA0534064DA84245
:102E600004D14D6922F4804242EA85124260C36176
:102E700049680164046230BD002C014010B5036A4A
:102E8000046A24F001040462846924F0F00444EA32
:102E9000021423F00A020A438461026210BD10B5D5
:102EA000036A046A24F010040462846923F0A00316
:102EB00024F4704444EA023243EA0111826101625F
:102EC00010BD01680C3151E8002F22F4907241E8E6
:102ED0000023002BF5D10168143151E8002F22F0B6
:102EE000010241E80023002BF5D1016B012909D132
:102EF00001680C3151E8002F22F0100241E8002354
:102F0000002BF5D1202180F8421000210163704789
:102F100070B5044600680169E26821F4405111432C
:102F200001612169A0680843616908432168CA6892
:102F300041F20C639A430243CA6020684169A26966
:102F400021F44071114341611E492068884202D139
:102F5000FEF7A4FA01E0FEF791FA00EBC00101EBE5
:102F60000012606864218000B2FBF0F3B3FBF1F360
:102F70006FF018067343B2FBF0F5B2FBF0F605EB09
:102F80008305322303EB0515B5FBF1F5B6FBF1F62E
:102F900005F0F00505EB0615B2FBF0F6B2FBF0F01C
:102FA000B0FBF1F06FF01802504306EB800003EB2A
:102FB0000010B0FBF1F0216800F00F002844886099
:102FC00070BD0000003801402DE9F84398461746CF
:102FD0000D460446089E24E0701C22D0FDF7D8FE62
:102FE000A0EB0800B0421AD8CEB12068C1684907EA
:102FF00017D5802D15D0402D13D00168C94309077E
:103000000FD401680025406800902046FFF759FF63
:103010000820606484F840500120BDE8F883032054
:10302000FBE72068006835EA000004D00020B842C1
:10303000D2D00020F1E70120F9E7FEE770B50446A1
:103040001148007800281ED000F08EFF0F4D00229E
:1030500010212846FDF796FE202000F053FFC4F310
:10306000074000F04FFFC4F3072000F04BFFE0B231
:1030700000F048FF012210212846FDF783FEBDE83D
:10308000704000F059BF70BD3C00002000080140B6
:1030900070B586B010200124CDE901040320CDE9EC
:1030A0000340164E002501A93046FDF773FD0122AD
:1030B00010213046FDF766FE684600F087F89DF85F
:1030C00000100F48EF290ED0C8290CD01F290AD0B4
:1030D00005709DF802309DF801200AA000F0D2F89A
:1030E000002006B070BD04709DF802309DF80120EC
:1030F00013A000F0C7F80120F3E70000000801402A
:103100003C0000205B573235515D2049443A202570
:1031100030325820253032582025303258202D208A
:103120004641494C45442028657870656374656460
:103130002045462F31462F4338290D0A0000000054
:103140005B573235515D2049443A202530325820B2
:10315000253032582025303258202D204F4B0D0A73
:10316000000000002DE9F0410446164815460E46C1
:103170000078002823D0144F002210213846FDF794
:1031800001FE032000F0BEFEC4F3074000F0BAFECB
:10319000C4F3072000F0B6FEE0B200F0B3FE002456
:1031A00004E0FF2000F0B8FE3055641CAC42F8D3B8
:1031B0003846BDE8F04101221021FDF7E3BDBDE82E
:1031C000F08100003C0000200008014070B50E4D69
:1031D0000446002210212846FDF7D4FD9F2000F070
:1031E00091FEFF2000F098FE2070FF2000F094FE7A
:1031F0006070FF2000F090FEA0702846BDE870408F
:1032000001221021FDF7BEBD000801402DE9F0416B
:1032100004461A4815460E46007800282CD04FF474
:103220008070854200D9054600F09EFE144F0022B2
:1032300010213846FDF7A6FD022000F063FEC4F31E
:10324000074000F05FFEC4F3072000F05BFEE0B231
:1032500000F058FE002404E0305D00F053FE641CD2
:10326000A4B2AC42F8D3012210213846FDF78AFD02
:10327000BDE8F04100F060BEBDE8F0813C000020F8
:10328000000801400FB4054B10B503A9044A029889
:1032900000F028F810BC5DF814FB00006D37000842
:1032A000000100200907090E002804DB00F1E020DE
:1032B00080F80014704700F00F0000F1E02080F863
:1032C000141D704702E008C8121F08C1002AFAD175
:1032D00070477047002001E001C1121F002AFBD196
:1032E000704700002DE9FF4F8DB00F4605460026C0
:1032F00006E025280BD0DDE90F1290476D1C761CE7
:1033000028780028F5D111B03046BDE8F08F0024B0
:10331000A246A1460122EC4900E0044315F8013F12
:10332000203B02FA03F00842F7D128782A2810D06F
:103330006FF02F022878A0F13001092914D80AEB88
:103340008A0102EB410144F0020400EB010A6D1C0A
:10335000F0E701CF5FEA000A03D544F40054CAF154
:10336000000A44F002046D1C28782E2817D115F8A5
:10337000010F44F004042A280ED06FF02F022878A1
:10338000A0F1300109290AD809EB890102EB4101BA
:1033900000EB01096D1CF2E757F8049B6D1C2878BF
:1033A0006C280FD006DC4C2817D068280DD06A286E
:1033B00014D104E0742810D07A280FD10DE044F421
:1033C00000140AE044F4801401E044F440146978E5
:1033D000814202D104F580146D1C6D1C2A786E2A7E
:1033E0001FD00CDC632A31D004DC002A8BD0582A91
:1033F00011D1A3E0642A68D0692A0CD165E0732A50
:103400002ED004DC6F2A73D0702A04D19BE0752A79
:103410006FD0782A6ED01046DDE90F129047761CE7
:1034200050E1C4F30250022806D0032809D0042832
:1034300001CF09D0066045E101CFF117C0E9006175
:1034400040E101CF06803DE106703BE117F8040B37
:103450008DF8000000208DF80100EB46012003E00C
:1034600057F804BB4FF0FF3061074FF0000102D462
:103470000DE008F10101884649450FDA8045F8DB87
:103480001BF808100029F4D108E008F10101884672
:103490008142FADB1BF808100029F6D1DDE90F2381
:1034A000AAEB08008146214600F036F9304400EBD3
:1034B000080604E0DDE90F121BF8010B9047B8F194
:1034C0000108F7D221464846F7E00A21C4F3025327
:1034D0004FF0000B0891022B04D001CFC117032B32
:1034E00009D00AE0FF1D27F00707F7E8020108E00E
:1034F00032E01FE020E000B2C117042B01D140B23E
:10350000C117031E71F1000307DA4FF0000CD0EB76
:103510000C006CEB01012D2302E0230504D52B23C5
:103520008DF82430012303E0E30701D02023F7E7DF
:10353000984658E00A2110E010210EE010204FF0CC
:10354000000B08900CE010214FF0000B44F0040435
:103550004FF00809089103E008214FF0000B089193
:10356000C4F30253022B04D001CF0021032B06D059
:1035700006E0FF1D27F00707F7E8020103E080B22D
:10358000042B00D1C0B24FF0000823072BD5702ABE
:1035900007D0DDF820C08CF0100C5CEA0B0C05D0D5
:1035A0000EE040238DF82430012308E050EA0103A7
:1035B00006D030238DF824308DF82520022398463C
:1035C000DDF820C08CF0080C5CEA0B0C0BD150EA43
:1035D000010301D1630706D530238DF824304FF065
:1035E0000108A9F10109582A04D038A20B9208AAAF
:1035F0000A920BE03AA2F9E75B46089AFCF7C6FD8F
:103600000B9B9B5C0A9A521E0A92137050EA0102AD
:10361000F2D10A98ADEB000000F1200B600702D553
:1036200024F4803401E04FF00109D94502DDA9EB13
:103630000B0000E0002000EB0B0141440890AAEBD6
:10364000010AE00306D4DDE90F232146504600F0CD
:1036500063F806444FF0000908E009A911F80900D1
:10366000DDE90F12904709F10109761CC145F4DB31
:10367000E0030CD5DDE90F232146504600F04CF85D
:10368000064404E0DDE90F1230209047761C0899CB
:10369000481E08900029F5DC08E00A980A9900788D
:1036A000491C0A91DDE90F129047761CBBF100011D
:1036B000ABF1010BF1DC21465046DDE90F2300F0B0
:1036C00019F806446D1C1BE609280100303132331D
:1036D000343536373839616263646566000000004E
:1036E0003031323334353637383941424344454638
:1036F000000000002DE9F041044600251E46174653
:10370000880404D405E039462020B0476D1C641EAF
:10371000F9D52846BDE8F0812DE9F04104460025A1
:103720001E469046C80301D5302700E020278804B4
:1037300004D505E041463846B0476D1C641EF9D5F6
:103740002846BDE8F0810000012211460148FDF73E
:1037500019BB0000000C0140024600200146535CEA
:10376000491C58400C29FADB7047000013B50A23A6
:10377000012269460248FEF7B5FC00981CBD000016
:1037800028060020FEB51349002406468C600C7301
:1037900001254FF460200D61C8610846FDF716F859
:1037A00007200096CDE9015069460A48FCF78CFFD6
:1037B0000848FDF763F964210648FDF7C1F818B918
:1037C0000448FCF7FFFF84B20248FDF7B7F9204632
:1037D000FEBD0000040500208CB0FDF76FFCFFF774
:1037E0001FFAFEF793FEFEF75FFEFEF7CFFEFEF731
:1037F000EDFEFEF70FFFFEF75FFFE7A0FFF742FDCC
:10380000EEA0FFF73FFDF3A0FFF73CFDF9A0FFF7A7
:1038100039FDFFF7CFF8FFF73BFCFCF7CFFDFFF7D3
:10382000A7F9FCF785FDFEF7BBFCFEF793FFFCF75D
:10383000BBFEF9A200211420FCF723FF0A237F22FC
:1038400019460020FCF7E0FEF7A210210020FCF74B
:1038500018FFFAA21A210020FCF713FFFCA22D2169
:103860001E20FCF70EFFFCF72AFF4FF49660FDF7D1
:103870007FF96420FCF74AFDF8A0FFF703FDFEA0E6
:10388000FFF700FDDFF820B44FF4FA7ADFF81C846C
:10389000FDF77EFA04465D4663E04068C0B25A28F0
:1038A0003AD012DC522845D008DC2D284FD03D28D4
:1038B00047D0462822D0482853D165E0532827D046
:1038C000542813D057284CD12EE0732820D006DC82
:1038D000662813D0682857D0722842D12AE074286D
:1038E00004D0772820D07A283BD115E0012088F831
:1038F00000001E20FCF70AFDEDA006E0022088F87B
:1039000000001E20FCF702FDECA0FFF7BBFC28E046
:103910000020C8F80C0024E0032088F800001E20D6
:10392000FCF7F4FCE8A0F0E7FCF7E2FD1E20FCF752
:10393000EDFC16E0FCF7AAFD6420FCF7E7FCE5A02F
:10394000E3E7EB480188323189B2018006E0E848BC
:103950000188642901D33239018089B2E5A0FFF7DB
:1039600091FC28680168890697D4FEF70BFC0028B3
:1039700052DB66282FD01DDC532834D015DC4628B6
:1039800029D0482848D13BE0E1A0FFF77BFCE8A024
:10399000FFF778FCEDA0FFF775FCF3A0FFF772FCD2
:1039A000F8A0FFF76FFC95A0AFE754280BD05A287A
:1039B00032D11DE0682823D0732814D0742802D097
:1039C0007A2829D114E0012088F800001E20FCF795
:1039D0009DFCF1A01EE0022088F800001E20FCF7EC
:1039E00095FCF1A016E00020C8F80C00F1A011E051
:1039F000032088F800001E20FCF788FCF1A009E0F5
:103A0000F4A0FFF73FFCCAA0FFF73CFCCFA0FFF7F4
:103A100039FCF9A0FFF736FCD8F804004546201A17
:103A2000504502D36C60FFF7D1F82869201AC828E6
:103A300012D32C61FFF78CF80646FFF773F82A784B
:103A40003146FEF793FE00202870FEF777FE00282F
:103A500002DBC0B2FCF77CFC9626FEF769FE052867
:103A60000AD2DFE800F0090305080800642603E035
:103A70004FF4967600E050266869A846201AB042B6
:103A80005DD345464FF00609C8F81440FEF750FED6
:103A9000A978884205D0002088F80100FEF748FE8A
:103AA000A870FEF745FE052840D2DFE800F00305C8
:103AB0000C141B00D94916E0D94998F8010051F8B7
:103AC00020700B2005E0D74998F8010051F82070CC
:103AD0000C2081460BE0D44998F8010051F8207081
:103AE0000420F6E7D14998F8010051F82070D7B1C9
:103AF0005FF0000505F1B000C0B2FEF7E7FF00205F
:103B0000FEF7E4FF1020FEF7E1FF002606EBC510EC
:103B1000385CFEF7EBFF761CF6B2802EF6D36D1CF8
:103B2000EDB2082DE6D3B9F1000F08D098F80110D6
:103B3000491CB1FBF9F309FB131188F80110554634
:103B4000FEF7F6FD05280CD2DFE800F00B030508B0
:103B50000A00C82505E040F2DC5502E0642500E0DB
:103B60005025D8F808004646201AA84205D34FF43D
:103B70000051AF48B460FDF7FDF8F06841F28831BC
:103B8000201A884206D31422AA4901A8F460FCF73F
:103B9000D9FA51E16BE100003D3D3D3D3D3D3D3DEC
:103BA0003D3D3D3D3D3D3D3D3D3D3D3D3D3D3D3D45
:103BB0003D3D3D3D3D3D3D3D0D0A0000202053541F
:103BC0004D3332204D6F6F6E4361742076322E304C
:103BD0000D0A000020204D43553A2053544D3332F6
:103BE000463130334338543620402037324D487AFE
:103BF0000D0A00003D3D3D3D3D3D3D3D3D3D3D3DD2
:103C00003D3D3D3D3D3D3D3D3D3D3D3D3D3D3D3DE4
:103C10003D3D3D3D0D0A0A004D6F6F6E43617420BE
:103C200076322E30000000004F4C45442020534592
:103C30004E53202042555A5A00000000464C415332
:103C4000482046534D202020524541445900000051
:103C5000426F6F74696E672E2E2E00000A3D3D3D47
:103C60002053797374656D20426F6F74204F4B2120
:103C7000203D3D3D0D0A0000436F6D6D616E647324
:103C80003A20746F75636828742920666565642816
:103C90006629207374617475732873292068656CB4
:103CA000702868290D0A0A0028060020000000205C
:103CB0005B544F5543485D0D0A0000005B46454587
:103CC000445D0D0A000000005B534C4545505D0DFE
:103CD0000A0000005B52455345545D2064656661EF
:103CE000756C747320726573746F7265640D0A006D
:103CF0001E0000205B4E54435D20686F7420746882
:103D0000726573686F6C643A2025640D0A000000C8
:103D10000D0A3D3D3D204341542050455420434F22
:103D20004D4D414E4453203D3D3D0D0A00000000E5
:103D3000202074202D20746F756368202020662059
:103D40002D20666565640D0A0000000020207A20A1
:103D50002D20736C65657020202073202D207374D6
:103D6000617475730D0A0000202077202D20736187
:103D700076652020202072202D2072657365740DD9
:103D80000A00000020203D2F2D2061646A204E543F
:103D90004320686F740D0A005B42542D544F554305
:103DA000485D0D0A000000005B42542D4645454425
:103DB0005D0D0A005B42542D5354415455535D0D23
:103DC0000A0000005B42542D534C4545505D0D0ADE
:103DD000000000000D0A3D3D3D2043415420504568
:103DE0005420434F4D4D414E4453202842542920E6
:103DF0003D3D3D0D0A0000003D3D3D3D3D3D3D3D0D
:103E00003D3D3D3D3D3D3D3D3D3D3D3D3D3D3D3DE2
:103E10003D3D3D3D3D3D0D0A0A000000540000209F
:103E20007C000020A80000206C000020D8000020AA
:103E300000100140903F00081422104906A8FCF72A
:103E400081F9FEF77FFE0546FEF766FE0446FEF7A3
:103E50006FFC06A951F82060FEF776FC01A9234605
:103E600051F82010324606A00095FFF70BFAFCF738
:103E70008DFA0A20FCF77CFE0AE50000A43F00084A
:103E80005B4341545D2053746174653D257320414B
:103E90006E696D3D2573204C44523D2564204E547F
:103EA000433D25640D0A000070B5154CA06800283C
:103EB00025D0FCF76DFFE168054688421FD32178C5
:103EC000A06830F8116046B1607860B10020607081
:103ED00058B13046FCF71AFA09E00020A060BDE8AE
:103EE0007040FFF731BC0120F1E7FFF72DFCA81966
:103EF000E0606078002802D12078401C207070BDFE
:103F00002C00002001B56423012269460148FDF719
:103F10001DFD08BD8805002001B582B06420009019
:103F2000012301AA02A90348FDF7C3FD9DF804007F
:103F30000EBD00008805002070B50A4C002210213B
:103F40002046FCF71FFF0520FFF7DCFFFF20FFF7EF
:103F5000E3FF0546012210212046FCF713FFE80786
:103F6000ECD170BD0008014010B5084C00221021B2
:103F70002046FCF707FF0620FFF7C4FF204601227A
:103F8000BDE810401021FCF7FDBE00000008014014
:103F9000ECDD00080CDE000800DE0008F4DD00089F
:103FA00008DE000814DE000834DE000828DE000801
:103FB0001CDE000830DE00083C0000001E0000008F
:103FC000F0003C00F000000078003C0078003C006D
:103FD000F0000000000000000000005F000000078B
:103FE000000700147F147F14242A7F2A1223130849
:103FF000646236495522500005030000001C22412E
:10400000000041221C00082A1C2A0808083E080853
:104010000050300000080808080800606000002018
:10402000100804023E5149453E00427F4000426173
:104030005149462141454B311814127F10274545FF
:1040400045393C4A49493001710905033649494916
:1040500036064949291E0036360000005636000053
:1040600000081422411414141414412214080002EC
:1040700001510906324979413E7E1111117E7F4975
:104080004949363E414141227F4141221C7F4949F5
:1040900049417F090901013E414151327F08080829
:1040A0007F00417F41002040413F017F08142241B1
:1040B0007F404040407F0204027F7F0408107F3E23
:1040C0004141413E7F090909063E4151215E7F0978
:1040D000192946464949493101017F01013F4040C4
:1040E000403F1F2040201F7F2018207F63140814AA
:1040F000630304780403615149454300007F414153
:10410000020408102041417F000004020102044023
:1041100040404040000102040020545454787F483D
:104120004444383844444420384444487F38545444
:104130005418087E090102081454543C7F080404F2
:104140007800447D40002040443D00007F1028441A
:1041500000417F40007C041804787C08040478380F
:10416000444444387C14141408081414187C7C0843
:104170000404084854545420043F4440203C404028
:10418000207C1C2040201C3C4030403C442810280F
:10419000440C5050503C4464544C44000836410098
:1041A00000007F0000004136080008082A1C0800B3
:1041B00000000000000000000000000000000000FF
:1041C00000000000000000000000000000000000EF
:1041D00000000000000000000000000000000000DF
:1041E00000000000000000000000000000000000CF
:1041F00000000000000000000000000000000000BF
:1042000000000000000000000000000000000000AE
:10421000000000000000000000000000000000009E
:10422000000000000000000000000000000000008E
:10423000000000000000000000000000000000007E
:10424000000000000000000000000000000000006E
:10425000000000000000000000000000000000005E
:10426000000080E07018080818F0C0C0C0C080804E
:104270008080808080C04060203030E000000000FE
:10428000000000000000000000000000000000002E
:10429000000000000000000000000000000000001E
:1042A000000000000000000000000000000000000E
:1042B00000000000000000000000000000000000FE
:1042C00000000000000000000000000000000000EE
:1042D00000000000000000000000000040603018F6
:1042E0000C060300000000E0E000000000000000F9
:1042F00000C0E001000000000000041F38E0800062
:1043000000000000000000000000000000000000AD
:10431000000000000000000000000000000000009D
:10432000000000000000000000000000000000008D
:10433000000000000000000000000000000000007D
:10434000000000000000000000000000000000006D
:1043500000000000000000000000000C0EC6F0A0ED
:104360008080E030180C0787C36333131E0400807D
:10437000C04F4F40C0000000000000008080316747
:104380000E0000000000000000000000000000001F
:10439000000000000000000000000000000000001D
:1043A000000000000000000000000000000000000D
:1043B00000000000000000000000000000000000FD
:1043C00000000000000000000000000000000000ED
:1043D00000000000000000000000000000000000DD
:1043E000FF070000000C0E030000000000000007A3
:1043F0000C183232030282F81E0606060707000078
:1044000000000000000000000000000000000000AC
:10441000000000000000000000000000000000009C
:10442000000000000000000000000000000000008C
:10443000000000000000000000000000000000007C
:10444000000000000000000000000000000000006C
:1044500000000000000000000000000000000080DC
:10446000E73C000000000000000000000000000029
:104470000000000000000F30C0C02020383800309D
:10448000308000000000000000000000000000007C
:10449000000000000000000000000000000000001C
:1044A000000000000000000000000000000000000C
:1044B00000000000000000000000000000000000FC
:1044C00000000000000000000000000000000000EC
:1044D0000000000000000000000000000000060FC7
:1044E000080C040602020203030302020202020293
:1044F0000202060606040C0C080D0F030303030357
:1045000003010000000000000000000000000000A7
:10451000000000000000000000000000000000009B
:10452000000000000000000000000000000000008B
:10453000000000000000000000000000000000007B
:10454000000000000000000000000000000000006B
:10455000000000000000000000000000000000005B
:10456000000000000000000000000000000000004B
:10457000000000000000000000000000000000003B
:10458000000000000000000000000000000000002B
:10459000000000000000000000000000000000001B
:1045A000000000000000000000000000000000000B
:1045B00000000000000000000000000000000000FB
:1045C00000000000000000000000000000000000EB
:1045D00000000000000000000000000000000000DB
:1045E00000000000000000000000000000000000CB
:1045F00000000000000000000000000000000000BB
:1046000000000000000000000000000000000000AA
:10461000000000000000000000000000000000009A
:10462000000000000000000000000000000000008A
:10463000000000000000000000000000000000007A
:10464000000000000000000000000000000000006A
:10465000000000000000000000000000000000005A
:10466000000080E07018080818F0C0C0C0C080804A
:104670008080808080C04060203030E000000000FA
:10468000000000000000000000000000000000002A
:10469000000000000000000000000000000000001A
:1046A000000000000000000000000000000000000A
:1046B00000000000000000000000000000000000FA
:1046C00000000000000000000000000000000000EA
:1046D00000000000000000000000000040603018F2
:1046E0000C060300000000E0E000000000000000F5
:1046F00000C0E001000000000000041F38E080005E
:1047000000000000000000000000000000000000A9
:104710000000000000000000000000000000000099
:104720000000000000000000000000000000000089
:104730000000000000000000000000000000000079
:104740000000000000000000000000000000000069
:1047500000000000000000000000000C0EC6F0A0E9
:104760008080E030180C0787C36333139EC46060F9
:10477000604FCF80000000000000000080803167A3
:104780000E0000000000000000000000000000001B
:104790000000000000000000000000000000000019
:1047A0000000000000000000000000000000000009
:1047B00000000000000000000000000000000000F9
:1047C00000000000000000000000000000000000E9
:1047D00000000000000000000000000000000000D9
:1047E000FF070000000C0E03000000000001020E95
:1047F00008183131230282F81E060606070700005A
:1048000000000000000000000000000000000000A8
:104810000000000000000000000000000000000098
:104820000000000000000000000000000000000088
:104830000000000000000000000000000000000078
:104840000000000000000000000000000000000068
:1048500000000000000000000000000000000080D8
:10486000E73C000000000000000000000000000025
:104870000000000000000F30F0F020202020203049
:104880003050C000000000000000000000000000E8
:104890000000000000000000000000000000000018
:1048A0000000000000000000000000000000000008
:1048B00000000000000000000000000000000000F8
:1048C00000000000000000000000000000000000E8
:1048D0000000000000000000000000000000060FC3
:1048E000080C04060202020303030202020202028F
:1048F0000202060606040C0C080D0F030202020653
:1049000002020200000000000000000000000000A1
:104910000000000000000000000000000000000097
:104920000000000000000000000000000000000087
:104930000000000000000000000000000000000077
:104940000000000000000000000000000000000067
:104950000000000000000000000000000000000057
:104960000000000000000000000000000000000047
:104970000000000000000000000000000000000037
:104980000000000000000000000000000000000027
:104990000000000000000000000000000000000017
:1049A0000000000000000000000000000000000007
:1049B00000000000000000000000000000000000F7
:1049C00000000000000000000000000000000000E7
:1049D00000000000000000000000000000000000D7
:1049E00000000000000000000000000000000000C7
:1049F00000000000000000000000000000000000B7
:104A000000000000000000000000000000000000A6
:104A10000000000000000000000000000000000096
:104A20000000000000000000000000000000000086
:104A30000000000000000000000000000000000076
:104A40000000000000000000000000000000000066
:104A50000000000000000000000000000000000056
:104A60000080E03018080878F0C0C0C0C0C0C08026
:104A700080808080C06060203030E0000000000056
:104A80000000000000000000000000000000000026
:104A90000000000000000000000000000000000016
:104AA0000000000000000000000000000000000006
:104AB00000000000000000000000000000000000F6
:104AC00000000000000000000000000000000000E6
:104AD0000000000000000000000000603018080C1A
:104AE0000603000000C0F0200000000000000000ED
:104AF000C0E000000000000000041F38E0C000001B
:104B000000000000000000000000000000000000A5
:104B10000000000000000000000000000000000095
:104B20000000000000000000000000000000000085
:104B30000000000000000000000000000000000075
:104B40000000000000000000000000000000000065
:104B5000000000000000000000000C0EE2F0808069
:104B600080E030180C0787E333111B0E0000C040B3
:104B70006F6FC0C000000000000000808031670C33
:104B80000000000000000000000000000000000025
:104B90000000000000000000000000000000000015
:104BA0000000000000000000000000000000000005
:104BB00000000000000000000000000000000000F5
:104BC00000000000000000000000000000000000E5
:104BD000000000000000000000000000000000F9DC
:104BE0003F0000000C0F0100000000000000070C57
:104BF0001A12330303E0FE02020606070300000058
:104C000000000000000000000000000000000000A4
:104C10000000000000000000000000000000000094
:104C20000000000000000000000000000000000084
:104C30000000000000000000000000000000000074
:104C40000000000000000000000000000000000064
:104C5000000000000000000000000000000000FF55
:104C6000180000000000000000000000000000002C
:104C70000000000000073FE060606060606060A0CE
:104C80008080000000000000000000000000000024
:104C90000000000000000000000000000000000014
:104CA0000000000000000000000000000000000004
:104CB00000000000000000000000000000000000F4
:104CC00000000000000000000000000000000000E4
:104CD0000000000000000000000000000000070FBE
:104CE000080C04060203030301010101010303038D
:104CF0000202060604040C07030206060604040466
:104D000001000000000000000000000000000000A2
:104D10000000000000000000000000000000000093
:104D20000000000000000000000000000000000083
:104D30000000000000000000000000000000000073
:104D40000000000000000000000000000000000063
:104D50000000000000000000000000000000000053
:104D60000000000000000000000000000000000043
:104D70000000000000000000000000000000000033
:104D80000000000000000000000000000000000023
:104D90000000000000000000000000000000000013
:104DA0000000000000000000000000000000000003
:104DB00000000000000000000000000000000000F3
:104DC00000000000000000000000000000000000E3
:104DD00000000000000000000000000000000000D3
:104DE00000000000000000000000000000000000C3
:104DF00000000000000000000000000000000000B3
:104E000000000000000000000000000000000000A2
:104E10000000000000000000000000000000000092
:104E20000000000000000000000000000000000082
:104E30000000000000000000000000000000000072
:104E40000000000000000000000000000000000062
:104E50000000000000000000000000000000000052
:104E6000C0E030180C0878E04040C0C0C0C0C0C0EE
:104E7000808080C06020303030F0000000000000F2
:104E80000000000000000000000000000000000022
:104E90000000000000000000000000000000000012
:104EA0000000000000000000000000000000000002
:104EB00000000000000000000000000000000000F2
:104EC00000000000000000000000000000000000E2
:104ED00000000000000000000000607038180C06A0
:104EE0000300000000E0E0000000000000000000FF
:104EF000E0E0000000000000060F38E0C000000005
:104F000000000000000000000000000000000000A1
:104F10000000000000000000000000000000000091
:104F20000000000000000000000000000000000081
:104F30000000000000000000000000000000000071
:104F40000000000000000000000000000000000061
:104F5000000000000000000000080EC6F0B08080D5
:104F6000C060381C0407C3633119CFE02030206CC7
:104F7000CF83000000000000000080801137040093
:104F80000000000000000000000000000000000021
:104F90000000000000000000000000000000000011
:104FA0000000000000000000000000000000000001
:104FB00000000000000000000000000000000000F1
:104FC00000000000000000000000000000000000E1
:104FD000000000000000000000000000000001FFD1
:104FE000010000000C0701000000000103060C187E
:104FF0001811010100FC0703030303030000000074
:1050000000000000000000000000000000000000A0
:105010000000000000000000000000000000000090
:105020000000000000000000000000000000000080
:105030000000000000000000000000000000000070
:105040000000000000000000000000000000000060
:10505000000000000000000000000000000080FFD1
:105060000000000000000000008080808000000040
:1050700000000000003FE0E0606040606060E080B1
:105080000000000000000000000000000000000020
:105090000000000000000000000000000000000010
:1050A0000000000000000000000000000000000000
:1050B00000000000000000000000000000000000F0
:1050C00000000000000000000000000000000000E0
:1050D0000000000000000000000000000000070FBA
:1050E0000C0C04060203030101010000010101038D
:1050F0000302020606040707060604040404050169
:10510000000000000000000000000000000000009F
:10511000000000000000000000000000000000008F
:10512000000000000000000000000000000000007F
:10513000000000000000000000000000000000006F
:10514000000000000000000000000000000000005F
:10515000000000000000000000000000000000004F
:10516000000000000000000000000000000000003F
:10517000000000000000000000000000000000002F
:10518000000000000000000000000000000000001F
:10519000000000000000000000000000000000000F
:1051A00000000000000000000000000000000000FF
:1051B00000000000000000000000000000000000EF
:1051C00000000000000000000000000000000000DF
:1051D00000000000000000000000000000000000CF
:1051E00000000000000000000000000000000000BF
:1051F00000000000000000000000000000000000AF
:10520000000000000000000000000000000000009E
:10521000000000000000000000000000000000008E
:10522000000000000000000000000000000000007E
:10523000000000000000000000000000000000006E
:10524000000000000000000000000000000000005E
:10525000000000000000000000000000000000C08E
:105260006038180C0C78704040404040C0C0C0C04E
:1052700080C06060303030F0F000000000000000BE
:10528000000000000000000000000000000000001E
:10529000000000000000000000000000000000000E
:1052A00000000000000000000000000000000000FE
:1052B00000000000000000000000000000000000EE
:1052C00000000000000000000000000000000000DE
:1052D0000000000000000000406030180C060301D0
:1052E00000000000E0F0000000000000000000E00E
:1052F000E0000000000000070F1870E080000000D0
:10530000000000000000000000000000000000009D
:10531000000000000000000000000000000000008D
:10532000000000000000000000000000000000007D
:10533000000000000000000000000000000000006D
:10534000000000000000000000000000000000005D
:105350000000000000000000080CC6E0A08080C033
:1053600060381C0F07C36331190F0600C060272F78
:1053700060C00000000000000000C01833060000FC
:10538000000000000000000000000000000000001D
:10539000000000000000000000000000000000000D
:1053A00000000000000000000000000000000000FD
:1053B00000000000000000000000000000000000ED
:1053C00000000000000000000000000000000000DD
:1053D0000000000000000000000000000001FF01CC
:1053E0000000000C0701000000000000070C081B73
:1053F00011010101E0FF03030303030000000000AB
:10540000000000000000000000000000000000009C
:10541000000000000000000000000000000000008C
:10542000000000000000000000000000000000007C
:10543000000000000000000000000000000000006C
:10544000000000000000000000000000000000005C
:105450000000000000000000000000000000FF004D
:1054600000000000000080808080808080808000BC
:1054700000000080FF60606060606060E00000002D
:10548000000000000000000000000000000000001C
:10549000000000000000000000000000000000000C
:1054A00000000000000000000000000000000000FC
:1054B00000000000000000000000000000000000EC
:1054C00000000000000000000000000000000000DC
:1054D0000000000000000000000000000000070CB9
:1054E0000C0406030301010000000101000001019A
:1054F00003020203030206060404040C0501000073
:10550000000000000000000000000000000000009B
:10551000000000000000000000000000000000008B
:10552000000000000000000000000000000000007B
:10553000000000000000000000000000000000006B
:10554000000000000000000000000000000000005B
:10555000000000000000000000000000000000004B
:10556000000000000000000000000000000000003B
:10557000000000000000000000000000000000002B
:10558000000000000000000000000000000000001B
:10559000000000000000000000000000000000000B
:1055A00000000000000000000000000000000000FB
:1055B00000000000000000000000000000000000EB
:1055C00000000000000000000000000000000000DB
:1055D00000000000000000000000000000000000CB
:1055E00000000000000000000000000000000000BB
:1055F00000000000000000000000000000000000AB
:10560000000000000000000000000000000000009A
:10561000000000000000000000000000000000008A
:10562000000000000000000000000000000000007A
:10563000000000000000000000000000000000006A
:10564000000000000000000000000000000000005A
:10565000000000000000000000000000000080C00A
:105660007038180818704040C0C0C0C0C08080802A
:1056700080C06020303030F0C0000000000000002A
:10568000000000000000000000000000000000001A
:10569000000000000000000000000000000000000A
:1056A00000000000000000000000000000000000FA
:1056B00000000000000000000000000000000000EA
:1056C00000000000000000000000000000000000DA
:1056D0000000000000000000406030180C060301CC
:1056E000000000E0F0000000000000000000E0E02A
:1056F00000000000000000071D38E08000000000EE
:105700000000000000000000000000000000000099
:105710000000000000000000000000000000000089
:105720000000000000000000000000000000000079
:105730000000000000000000000000000000000069
:105740000000000000000000000000000000000059
:1057500000000000000000000C06E2F0808080C025
:1057600070380C0787E233131FEEA02020206FC78C
:10577000800000000000000000C0803937020000F7
:105780000000000000000000000000000000000019
:105790000000000000000000000000000000000009
:1057A00000000000000000000000000000000000F9
:1057B00000000000000000000000000000000000E9
:1057C00000000000000000000000000000000000D9
:1057D0000000000000000000000000000001FF01C8
:1057E0000000001E0700000000000107040C181054
:1057F00011010100FF030303030303000000000085
:105800000000000000000000000000000000000098
:105810000000000000000000000000000000000088
:105820000000000000000000000000000000000078
:105830000000000000000000000000000000000068
:105840000000000000000000000000000000000058
:105850000000000000000000000000000000FF0049
:105860000000000000008080808080808080000038
:105870000000C0FE37206060606060000000000033
:105880000000000000000000000000000000000018
:105890000000000000000000000000000000000008
:1058A00000000000000000000000000000000000F8
:1058B00000000000000000000000000000000000E8
:1058C00000000000000000000000000000000000D8
:1058D0000000000000000000000000000000070CB5
:1058E0000C04060303010100000000000001030294
:1058F0000203030103020604040C0101000000007E
:105900000000000000000000000000000000000097
:105910000000000000000000000000000000000087
:105920000000000000000000000000000000000077
:105930000000000000000000000000000000000067
:105940000000000000000000000000000000000057
:105950000000000000000000000000000000000047
:105960000000000000000000000000000000000037
:105970000000000000000000000000000000000027
:105980000000000000000000000000000000000017
:105990000000000000000000000000000000000007
:1059A00000000000000000000000000000000000F7
:1059B00000000000000000000000000000000000E7
:1059C00000000000000000000000000000000000D7
:1059D00000000000000000000000000000000000C7
:1059E00000000000000000000000000000000000B7
:1059F00000000000000000000000000000000000A7
:105A00000000000000000000000000000000000096
:105A10000000000000000000000000000000000086
:105A20000000000000000000000000000000000076
:105A30000000000000000000000000000000000066
:105A40000000000000000000000000000000000056
:105A50000000000000000000C000603010101818A6
:105A60000808081818103060C0000000000000008E
:105A70000000000000000000000000000000000026
:105A80000000000000000000000000000000000016
:105A90000000000000000000000000000000000006
:105AA00000000000000000000000000000000000F6
:105AB00000000000000000000000000000000000E6
:105AC00000000000000000000000000000000000D6
:105AD0000000000000E01D030000000000000000C6
