:020000040800F2
:10000000480B0020010100085B310008D92B0008D3
:1000100059310008B90700086B3A000800000000D9
:10002000000000000000000000000000453500084E
:1000300065080008000000005D3100084D3600082A
:100040001B0100081B0100081B0100081B01000820
:100050001B0100081B0100081B0100081B01000810
:100060001B0100081B0100081B0100081B01000800
:100070001B0100081B0100081B0100081B010008F0
:100080001B0100081B0100081B0100081B010008E0
:100090001B0100081B0100081B0100081B010008D0
:1000A0001B0100081B0100081B0100081B010008C0
:1000B0001B0100081B0100081B0100081B010008B0
:1000C0001B0100081B0100081B0100081B010008A0
:1000D0001B0100081B0100081B0100081B01000890
:1000E0001B0100081B0100081B010008DFF80CD0F1
:1000F00000F068FA00480047A1460008480B0020BD
:100100000648804706480047FEE7FEE7FEE7FEE7B1
:10011000FEE7FEE7FEE7FEE7FEE7FEE7C93600087A
:10012000ED000008202A04DB203A21FA02F0002129
:10013000704721FA02F3D040C2F1200291400843F7
:100140001946704740EA01039B0703D009E008C93C
:10015000121F08C0042AFAD203E011F8013B00F88C
:10016000013B521EF9D27047D2B201E000F8012BD8
:10017000491EFBD270470022F6E710B513460A4627
:1001800004461946FFF7F0FF204610BD10B50022C7
:1001900000E0521C835C8C5CA34201D1002BF8D19F
:1001A000D8B2E1B2401A10BD30B505460020034672
:1001B00000E05B1C934205D2EC5CC85C201A01D1C4
:1001C000002CF6D130BD30B50B4601460020202270
:1001D000012409E021FA02F59D4205D303FA02F554
:1001E000491B04FA02F52844151EA2F10102F1DCB4
:1001F00030BD2DE9F05F0546002092469B468846BB
:100200000646814640241BE0284641464746224692
:10021000FFF788FF53465A46C01A914110D3114642
:100220001846224600F0E0F92D1A67EB01084F4608
:1002300022460120002100F0D7F917EB00094E41BA
:10024000201EA4F10104DFDC484631462A4643461D
:10025000BDE8F09F2DE9FE4F804681EA0300C00F04
:100260000C46009021F0004123F00045B8EB02005D
:10027000A94105D24046214690461C460B460246FF
:1002800023F00040104347D0270DC7F30A00C3F303
:100290000A510290401A019040286BDAC3F3130010
:1002A00040F4801B0098924620B10023D2EB030A51
:1002B00063EB0B0B01985946C0F14002504600F029
:1002C00093F906460D4650465946019A00F09BF9AF
:1002D00010EB08006141002487EA115284EAE773B9
:1002E0001A4340D0009A62B3019A012A4FEA07529A
:1002F00015DC001B61EB02014FF0004202EA0752DD
:10030000CDE90042001C41F5801132462B4600F039
:100310009BF903B0BDE8F08F40462146F9E7001B8A
:1003200061EB0201001C41F5801300185B412018AD
:10033000A2F5001747EB030140EAD570B6196D41ED
:1003400011E06D084FEA360645EAC0754FEA0752DC
:10035000001B61EB0201001C41F5801149084FEAC6
:1003600030000019514132462B4603B0BDE8F04F32
:1003700000F05BB90098012240000023D0EB02029C
:1003800063EBE073009821464FEAE074B8EB00009D
:1003900061EB0401E9E783F000435BE781F0004192
:1003A00058E72DE9FE4F81EA030404F0004421F0F0
:1003B000004100944FF0000B23F0004350EA010489
:1003C0005ED052EA03045BD0C3F30A54C1F30A556A
:1003D0002C44A4F2F3340194A0FB0254C1F31301A2
:1003E00041F48011C3F3130343F4801301FB02446F
:1003F00000FB034E840A970A44EA815447EA835774
:10040000A4FB076802958D0A05FB07854FEA932C2C
:1004100004FB0C542705029D4FEA065847EA16379D
:10042000B5EB08056EEB070C870E920E47EA8117B5
:1004300042EA8312A7FB0201B6EB0B0164EB000456
:100440002B0D43EA0C335E1844EB1C50DA46514640
:10045000E7FB0201C5F313044FEA0B3343EA1453DD
:100460004FEA0432019C43EA0603A4F10C0402940F
:10047000009CCDE900B400F0E7F803B0BDE8F08FD0
:1004800000200146F9E72DE9F04D81EA030404F06C
:10049000004B21F0004514464FF0000A23F00041C4
:1004A00050EA050220D054EA01021DD0C5F30A57D4
:1004B0000246C5F31303C1F31300C1F30A5640F417
:1004C000801543F48013A7EB0608101BD64608F2EC
:1004D000FD3873EB050002D308F1010801E0921822
:1004E0005B41B8F1000F03DA00200146BDE8F08D52
:1004F00000204FF48011064684460EE0171B73EB74
:10050000050705D3121B63EB050306434CEA010CF8
:1005100049084FEA300092185B4150EA0107EDD1DB
:1005200052EA030012D082EA040083EA050108437C
:1005300005D0101BAB4106D20122002306E00022A9
:100540004FF0004302E06FF0010253101AEB060077
:100550004CEB085110EB0A0041EB0B01BDE8F04DEC
:1005600000F063B8C1F30A52C1F3130140F2FF3344
:1005700041F480119A4202DA00200146704740F2AD
:1005800033439A42A2F2334202DC5242FFF7CABD21
:1005900000F02AB830B5041E71F1000404DB4FF0FE
:1005A0000044404264EB0101141E73F1000405DBBA
:1005B0001C464FF00043524263EB0403994208BFCC
:1005C000904230BD064C074D06E0E06840F0010364
:1005D00094E8070098471034AC42F6D3FFF78AFD41
:1005E00094EC0008B4EC0008202A04DB203A00FA5E
:1005F00002F1002070479140C2F1200320FA03F37A
:10060000194390407047202A06DBCB17203A41FA65
:1006100002F043EAE07306E041FA02F3D040C2F18F
:100620002002914008431946704710B5141E73F11B
:10063000000408DA401C41F1000192185B411A43A2
:1006400001D120F0010010BD2DE9F04D92469B46EE
:1006500011B1B1FA81F202E0B0FA80F22032904694
:10066000FFF7C2FF04460F4640EA0A0041EA0B01C9
:1006700053465A46084313D0114653EA010019D095
:10068000C8F140025046FFF74DFD05460E46504664
:1006900059464246FFF7A8FF084305D0012004E071
:1006A00020463946BDE8F08D0020054346EAE07655
:1006B0002C4337430A986305E40AA0EB08000022A4
:1006C000FD0A44EA47540A3002D500200146E9E712
:1006D000010510196941DDE9084500196941BDE8C6
:1006E000F04DA2E770B5044600688168C943C907A8
:1006F00017D1816821F00101816000F077FE054685
:100700000AE000BF00F072FE401B022804D92068F6
:100710008068C043C00706D020688068C043C00717
:10072000F0D0002070BDA06A40F01000A062E06A26
:1007300040F00100E062012070BD0000F8B5002625
:100740000446009600688168C943C9072DD08168B6
:1007500041F001018160164816490068B0FBF1F0D4
:1007600000E0401E00900028FBD100F03FFE05464F
:1007700016E000BF00F03AFE401B022810D92068A6
:100780008068C043C0070BD0A06A40F01000A06290
:10079000E06A40F00100E06284F824600120F8BDC6
:1007A00020688068C043C007E4D10020F8BD000085
:1007B0000001002040420F00FEE7000010B5044693
:1007C00000220121044800F00BFE00F00FFE034957
:1007D0002044486010BD0000000C01402C000020A7
:1007E0001FB50120009001900290022003906946FD
:1007F000024800F0FDFC03F00BFF1FBD000C0140A0
:100800000C4930B1012806D002280CD0032805D1AC
:100810000CE0094801E008481038886000200870A2
:10082000C8604870704704480838F6E702480C383A
:10083000F3E700002C000020C04D000810B5084C64
:10084000606840B100F0D2FD6168884203D303F0D4
:10085000DFFE00206060BDE8104004F021BA000017
:100860002C000020704700000548006801688906D8
:1008700002D54068C0B270474FF0FF3070470000AB
:10088000BC06002010B502F04BFC044900200870A3
:10089000BDE8104002A003F00DBA0000F0000020F7
:1008A0005B455350383236365D20555341525433F0
:1008B000207265616479202831313532303020383A
:1008C0004E31290D0A0000002DE9F041234C244D42
:1008D000002600BFFFF7C8FF002802DA3046BDE857
:1008E000F0810D28F6D00A2806D029783F29F1D2C8
:1008F0006054491C2970EDE72978002004226054D7
:10090000287018A11548FFF74FFC38B1207800284F
:10091000E0D0124915A003F0CDF9DBE7271D16A1A1
:100920003846FFF733FC78B115A13846FFF72EFCA7
:1009300078B115A13846FFF729FC0028CAD114A0C8
:1009400003F0B8F90326C5E717A003F0B3F90126B1
:10095000C0E71BA003F0AEF90226BBE704070020A6
:10096000F0000020434D442C000000005B45535034
:100970005D2025730D0A0000544F554348000000C8
:100980004645454400000000534C454550000000DA
:100990005B4553505D20436C6F75643A20534C4562
:1009A00045500D0A000000005B4553505D20436C2C
:1009B0006F75643A20544F5543480D0A00000000FB
:1009C0005B4553505D20436C6F75643A2046454546
:1009D000440D0A000FB4802100B5A1B023AB6846D6
:1009E000229A03F077F900280FDD802801D37F20B9
:1009F00005E07F2803D20A210DF80010401C82B2C6
:100A000064236946024801F0C5FE21B05DF814FB7D
:100A1000BC06002072B6FEE710B586B00E2201A912
:100A2000002003F0B7F815490198884204D014A0BB
:100A300003F040F906B010BD01A803F0F1FD9DF8E8
:100A400010100246914203D0184803F033F9F1E741
:100A50001748BDF80810194C01801648BDF80A2047
:100A600002801548BDF80C300380BDF80E002080D0
:100A7000009013A003F01EF9DCE7000000A77CCA79
:100A80005B434F4E4649475D204E6F20736176654C
:100A90006420636F6E6669672C207573696E6720CA
:100AA00064656661756C74730D0A00004CEC000897
:100AB0001A0000201C0000201E0000202000002042
:100AC0005B434F4E4649475D204C6F616465643A15
:100AD000204C44523D25642F2564204E54433D252F
:100AE000642F25640D0A00000C4910B540F6B8309B
:100AF00008800B494FF4966008800A4940F2145070
:100B0000088009494FF42F600880002002F0AEFFF2
:100B1000BDE8104005A003F0CDB800001A00002089
:100B20001C0000201E000020200000205B434F4ED0
:100B30004649475D20526573657420746F20646573
:100B40006661756C74730D0A00000000F0B587B023
:100B50000020049005900690174C16480390174DFE
:100B60002088ADF81000164E2888ADF81200154FF9
:100B70003088ADF814003888ADF8160003A803F0EB
:100B80004FFD8DF81800002002F070FF0E2203A91F
:100B9000002003F053F838880E229DF818108DE8D5
:100BA000070033882A88218807A003F083F807B05C
:100BB000F0BD000000A77CCA1A0000201C00002025
:100BC0001E000020200000205B434F4E4649475D39
:100BD0002053617665643A204C44523D25642F25AC
:100BE00064204E54433D25642F25642028435243FE
:100BF0003D3078253032582073697A653D25642967
:100C00000D0A000002F0E6BB2DE9F05F8246A2F17A
:100C100020008B465F2800D33F22114902EB82005F
:100C20000844A0F1A00900254FF0010819F805605B
:100C300000240AEB050700BF08FA04F0304205D093
:100C40000BEB0400C1B2F8B200F069F8641CE4B226
:100C5000072CF1D36D1CEDB2052DE7D3BDE8F09F55
:100C6000CC4D00082DE9FC5F0446984616460D461B
:100C7000A24201D9301B00E0A01B8146A84502D941
:100C8000A8EB050001E0A5EB080082464FF0FF301D
:100C9000B44201D2012100E001460191454500D254
:100CA0000120A9EB0A07CAF1000B00902946204653
:100CB00000F035F8B44201D145450ED078005845D2
:100CC00004DD0199A7EB0A072144CCB24845EDDACF
:100CD00000984F442844C5B2E8E7BDE8FC9F2DE9E1
:100CE000F0411646074604460D4611E00A2A01D097
:100CF0007A2C06D90935EDB23C46382D0BD80A2A94
:100D000005D029462046FFF77FFFA41DE4B2761CDC
:100D10003278002AEAD1BDE8F08102F0B9BB0122A5
:100D200002F0D6BBF8B50024009490F824202546A4
:100D3000012A12D0012280F824204A681F23072AA2
:100D40000DD20668776B521E02EB820293409F43DE
:100D50000B6893401F43776319E00220F8BD0668D3
:100D60000D2A0AD2376BD21F02EB820293409F43B7
:100D70000B6893401F43376309E0F76A0D3A02EBB3
:100D8000820293409F430B6893401F43F7620A68B7
:100D9000072306680A2A0AD3F7680A3A02EB4202D6
:100DA00093409F438B6893401F43F76008E0376987
:100DB00002EB420293409F438B6893401F4337618D
:100DC0000A68102A01D0112A20D1124B02689A42D7
:100DD00017D193681B0219D4936843F400039360FE
:100DE0000968102912D10C490C4A0968B1FBF2F1CB
:100DF00001EB8101490000E0491E00910029FBD16F
:100E000004E0816A41F020018162012480F82450CD
:100E10002046F8BD002401400001002040420F00A0
:100E20000068C06C704700002DE9F0414FF00007EA
:100E300004003D467ED0A06A002628B9E66284F808
:100E40002460204600F07EF82046FFF74BFCA16AA4
:100E500001F01001014304D0A06A40F01000A0622C
:100E600068E0A16A21F4885141F00201A162626840
:100E7000E169237B0A4347EA43010A43A1684FF42F
:100E80008077B94208D0012906D0002194F814C017
:100E9000BCF1010F02D00AE03946F7E7F3B1A36ACB
:100EA00043F02003A362E36A43F00103E362236893
:100EB000D3F804C02CF4694C4CEA010CC3F804C00C
:100EC00023689968DFF870C001EA0C01114399604A
:100ED000A168B9420BD0012909D00CE0DFF85CC051
:100EE000A3690CEB43330B4343F40061DFE7218A32
:100EF0000D05A5F580152168CB6A23F470032B43FB
:100F0000CB62216889680E4B1940914208D1E66294
:100F1000A16A21F0020141F00101A162BDE8F08166
:100F2000A06A20F0020040F01000A062E06A40F0E9
:100F30000100E0620120F1E7FDF7E1FF00E0FFFFC3
:100F4000FE0E1FFF00B585B00021009101910291B6
:100F5000039100680E49884217D10E48816941F417
:100F600000718161816901F400710491816941F02E
:100F7000040181618069694600F004000490032047
:100F800000900190044800F033F905B000BD000066
:100F90000024014000100240000801402DE9F84300
:100FA00000270D460446009700F020FA804620688E
:100FB0008168C90508D5A06A40F02000A06284F8C5
:100FC00024700120BDE8F8834168C90503D4C06AD4
:100FD00010F4700F2AD0022000F020FC3B49096871
:100FE000B1FBF0F62068036939490B424FEA610111
:100FF0004FEAA1121FD1C3684FEA611C13EA0C0F1C
:1010000019D103690B4225D1C068104222D11420A6
:1010100023E0681C0AD02DB100F0E8F9A0EB08002D
:10102000A84203D920680068800725D52068006899
:101030008007EED52DE003690B4202D1C168114251
:1010400006D0026923490A4206D1C068084203D18A
:10105000542002E0292000E0FC204643009816E0DE
:10106000681C11D02DB100F0C1F9A0EB0800A84216
:101070000AD90098B04207D2A06A40F00400A062EA
:1010800084F8247003209DE70098401C0090B04233
:10109000E6D321686FF012000860A06A40F4007087
:1010A000A06220688068C0F3424007280CD1207BF2
:1010B00050B9A06A20F48070A062A06AC00403D472
:1010C000A06A40F00100A06200207BE70001002040
:1010D000244992244992240070B5044690F82400D3
:1010E00001280DD0012084F824002046FFF726FBBC
:1010F00002004FF0000005D084F82400104670BDB7
:10110000022070BDA16A40F20123994341F480712D
:10111000A1621F4D23681F49AB4218D10E6816F417
:10112000702F14D0A66A46F48016A6620E68760563
:1011300005D5A66A26F4005646F48056A662A66A2D
:10114000F6040AD5E66A26F00606E66206E0A66A16
:1011500026F48016A6625E68E9E7E06284F824005F
:101160006FF00200186020688368C3F34243072BC6
:1011700005D1A84208D1096811F4702F04D0816804
:1011800041F480118160B9E7816841F4A001F9E779
:10119000002801400424014010B5044690F82400C2
:1011A000012807D0012084F824002046FFF79AFA8E
:1011B00010B107E0022010BDA16A21F4885141F06E
:1011C0000101A162002184F8241010BD70B504460D
:1011D00000F00CF90546601C02D004480078044475
:1011E00000F004F9401BA042FAD370BDF4000020C7
:1011F0002DE9F84FDFF8B8910024A9F1040B23463C
:101200000F2709F1040AABF1040EC9E00125A5403E
:101210002A40AA427DD1674ED1F804C0ACEB060843
:10122000B44532D014DCBCF1030F3AD009DCBCF178
:10123000000F2AD0BCF1010F1CD0BCF1020F31D13C
:101240001DE0BCF1110F17D0BCF1120F2AD119E02B
:10125000B8F5881F19D006DCB8F5803F15D0B8F571
:10126000801F1FD111E0B8F5001F0ED0B8F5041F84
:1012700018D10AE0CB6815E0CB681B1D12E0CB68E3
:1012800008330FE0CB680C330CE08B682BB1012BDB
:101290004FF0080303D0456104E0042302E0056138
:1012A00000E00023FF2A01D8064601E000F1040611
:1012B0004FEA840501D9A5F12005D6F8008007FA88
:1012C00005FC28EA0C0803FA05F548EA0508C6F803
:1012D00000804D68ED0062D5374DAE6946F00106DD
:1012E000AE61AD6924F0030605F001050095334DAC
:1012F00006EB050CDCF80850A607360F07FA06F8CF
:1013000025EA0805DFF8B880404503D14FF0000812
:1013100017E044E0DFF8AC80404502D14FF001080F
:101320000FE0DFF8A480404502D14FF0020808E04A
:10133000DFF89880404502D14FF0030801E04FF0FC
:10134000040808FA06F848EA0508CCF808804D6851
:10135000D9F80060ED024D4601D5164300E09643F2
:101360002E604D68DAF80060AD02554601D516438F
:1013700000E096432E604D68DBF80060AD035D46EB
:1013800001D5164300E096432E604D68DEF80060FC
:10139000ED03754601D5164300E096432E60641CAC
:1013A0000D682A46E5407FF431AFBDE8F88F0000B4
:1013B000080401400000111000100240000001402C
:1013C00000080140000C01400010014000140140E1
:1013D000C26821EA02030A4043EA02410161704700
:1013E0000AB1016170470904FBE700000148806809
:1013F00070470000F400002070B5040025D094F878
:101400003D00002520B984F83C50204600F04EF9FC
:10141000242084F83D002068016821F0010101606A
:101420002068016841F4004101602068016821F4EE
:101430000041016000F050FB4D4A6168914201D8C3
:101440004C4900E04C49884201D2012070BD4B4913
:101450002368B0FBF1F15E6826F03F060E435E6044
:101460006368934206D94FF4967359434FF47A73E5
:10147000B1FBF3F12368491C1E6A26F03F06314395
:1014800019626168914210D84900401EB0FBF1F228
:10149000521CC2F30B02042A01D2042022E0B0FB4A
:1014A000F1F0401CC0F30B001CE0A268F2B301EBAA
:1014B000C10303EB0116431EB3FBF6F35B1C43F4BD
:1014C00080431B0549D092B301EBC10202EB01112D
:1014D000401EB0FBF1F0401CC0F30B0040F4804014
:1014E00040F400402168CA694CF6FF739A431043E8
:1014F000C861D4E9071001432068026822F0C002E5
:1015000011430160D4E9030101432068826848F275
:10151000FF339A4311438160D4E9050108432168F0
:10152000CA6822F0FF021043C86001E00EE016E036
:101530002068016841F0010101602564202084F8E1
:101540003D00256384F83E50002070BD01EB41064C
:10155000431EB3FBF6F35B1CB3E70120C2E701EBCC
:101560004101401EB0FBF1F0401CC0F30B00B7E797
:10157000A086010080841E0000093D0040420F004B
:101580002DE9F84F1F4690468A460446DDF828901C
:10159000FFF72CFF054694F83D0020287FD1192342
:1015A000012240492046009501F0A8FB002876D191
:1015B00094F83C00012872D0012084F83C00206897
:1015C0000168C90703D1016841F001010160206889
:1015D000016821F400610160212084F83D001020A1
:1015E00084F83E0000262664C4F824806785608D58
:1015F00020852D48E0622B464A465146204601F0A0
:1016000003FB90B9206841698069009036E02A4662
:101610004946204601F018FC50B1206C042804D142
:101620002068016841F4007101600120BDE8F88F75
:10163000606A216800780861606A401C6062618DA0
:10164000491E6185218D491E89B221852268536911
:10165000DB435B070BD451B100781061606A401C1A
:101660006062608D401E6085208D401E20852A4668
:101670004946204601F016FB0028CED1208D0028D7
:10168000C5D154F83D0B016841F400710160202080
:1016900004F81E09E67766770020C7E7FFE7022017
:1016A000C4E70000020010000000FFFF10B586B084
:1016B0000021009101910291039100680F49884235
:1016C0001AD10F4CA06940F00800A061A0696946DA
:1016D00000F008000490C020009012200190032028
:1016E00003900848FFF784FDE06940F40010E061D2
:1016F000E06900F40010049006B010BD00540040F2
:1017000000100240000C0140024881680278114438
:1017100081607047F4000020074810B5016841F06F
:1017200010010160032000F067F80F2000F006F8B8
:1017300000F024F8002010BD0020024070B50D4DCF
:1017400004464FF47A712878B1FBF0F00A49096831
:10175000B1FBF0F000F0D3FD48B9102C07D2002205
:101760002146501E00F028F800206C6070BD01205A
:1017700070BD0000F4000020000100200C4808B5F6
:10178000816941F001018161816901F001010091EC
:10179000C16941F08051C161C06900F08050009082
:1017A0000448416821F0E06141F00071416008BDEA
:1017B0000010024000000140F0B40E4B1B680C46C4
:1017C000C3F30223C3F10705042D00D90425191D15
:1017D000072901D2002300E0DB1E012606FA05F1ED
:1017E000491E214099409E40761E16403143F0BC70
:1017F00002F094BA0CED00E0064900F00702086818
:101800004FF6FF03184040EA0220034A10430860E5
:10181000704700000CED00E00000FA0510B501462D
:101820000020234C012922D0022939D010291DD1B2
:1018300061682268D20119D51E48C1F38342C903E9
:10184000805C0AD561681B4AC1F34041921E515C1D
:10185000194AB2FBF1F1484301E018494843616875
:10186000490203D440000321B0FBF1F010BD226A0D
:10187000C2F30121012903D1920701D5C80310BD8C
:10188000022905D1626A920702D549F6404010BD8F
:101890000329FCD121688903F9D54FF2244010BDFA
:1018A00000F02AF96168C1F38131491C4900DBE786
:1018B00000100240D4EB000800127A0000093D003D
:1018C0002DE9F84305460078354CC00754D0E0694F
:1018D0000026C00008D4E06940F08050E061E06973
:1018E000012600F0805000902E480168C90512D4EE
:1018F0000168804641F480710160FFF777FD07467B
:1019000005E000BFFFF772FDC01B642823D8D8F89C
:101910000000C005F6D5206A10F4407021D0A988D7
:1019200001F4407181421CD0206A1F49012220F439
:1019300040700A6000220A602062C00711D0FFF7E1
:1019400055FD074641F2883808E000BFFFF74EFD1D
:10195000C11B414502D90320BDE8F883206A8007F6
:10196000F4D5206A696820F44070084320621EB1F3
:10197000E06920F08050E0612878800705D5606834
:10198000A96820F44040084360602878C00605D567
:101990006068E96820F48000084360600020DBE7AD
:1019A0000010024000700040400442422DE9F04720
:1019B0000F46050061D0434E306800F00700B84282
:1019C00009D2306820F0070038433060306800F0FA
:1019D0000700B84251D128683B4C810712D5400717
:1019E00003D5606840F4E06060602878000703D5A4
:1019F000606840F4605060606068A96820F0F000A2
:101A0000084360602878C00728D06868012810D093
:101A10002168022810D0890700292EDA616821F098
:101A2000030101436160FFF7E1FC804641F2883920
:101A30000DE021688903EFE78901EDE7FFF7D6FCA8
:101A4000A0EB0801494502D90320BDE8F087606892
:101A5000696800F00C00B0EB810FEFD1306800F046
:101A60000700B8420BD9306820F0070038433060D7
:101A7000306800F00700B84201D00120E5E728787F
:101A8000400705D56068E96820F4E06008436060BD
:101A90002878000706D56068296920F4605040EA7C
:101AA000C100606000F038F86168084AC1F30311B2
:101AB000515CC8400649086006480068FFF73EFED2
:101AC0000020C2E70020024000100240E4EB0008C2
:101AD00000010020F800002004480549006849681A
:101AE000044AC1F30221515CC84070470001002044
:101AF00000100240F4EB00080448054900684968FA
:101B0000044AC1F3C221515CC84070470001002063
:101B100000100240F4EB00080E4A51680E4801F034
:101B20000C03042B11D0082B0FD10C48C1F38343B5
:101B3000C903C05C0AD55168084AC1F34041921EEE
:101B4000515C054A5043B0FBF1F0704704494843EB
:101B5000704700000010024000127A00C2EB00083B
:101B600000093D002DE9F84F040070D02078C04DE9
:101B7000C00749D06868C0F38100012807D06868B1
:101B8000C0F38100022809D16868C00306D528681F
:101B9000800339D560680028E7D035E06068B0F58B
:101BA000803F0BD010B1B0F5A02F11D0286820F4E1
:101BB00080302860286820F4802002E0286840F403
:101BC00080302860606890B1FFF710FC06460AE09C
:101BD000286840F480202860F0E700BFFFF706FC8B
:101BE000801B642873D828688003F7D50CE0FFF7C2
:101BF000FDFB064605E000BFFFF7F8FB801B6428ED
:101C0000F0D828688003F7D420789A4E80074FF0E8
:101C100001094FF0000839D5686810F00C0F07D0A3
:101C20006868C0F38100022809D16868C00306D43F
:101C30002868800714D52069012808D110E02069A0
:101C4000B0B1C6F80090FFF7D1FB074605E00AE106
:101C5000FFF7CCFBC01B0228C4D828688007F7D543
:101C60002868616920F0F80040EAC10028600DE0B2
:101C7000C6F80080FFF7BAFB074604E0FFF7B6FBA3
:101C8000C01B022823D828688007F7D420780007D3
:101C90002CD57948A169D9B1C0F80090FFF7A6FB0F
:101CA000074604E0FFF7A2FBC01B02280FD8686AB2
:101CB0008007F7D571484FF4FA510068B0FBF1F096
:101CC000009000BF0098411E0091FAD20EE080E023
:101CD000C0F80080FFF78AFB074604E0FFF786FBA9
:101CE000C01B022875D8686A8007F7D4207840079F
:101CF00060D5E8690027C00008D4E86940F080504A
:101D0000E861E869012700F0805000905C480168B4
:101D1000C90513D40168834641F480710160FFF75F
:101D200065FB824606E000BFFFF760FBA0EB0A0000
:101D300064284ED8DBF80000C005F5D5E06801281E
:101D40000AD008B1052813D0286A20F001002862C3
:101D5000286A20F0040002E0286A40F001002862AE
:101D6000E06841F2883B98B1FFF740FB82460BE008
:101D7000286A40F004002862EEE700BFFFF736FB58
:101D8000A0EB0A0159455AD8286A8007F6D50CE01D
:101D9000FFF72CFB824605E0FFF728FBA0EB0A01CA
:101DA00059454CD8286A8007F6D41FB1E86920F05D
:101DB0008050E861E06988B36968C1F38101022954
:101DC00044D00228C6F8608004D0FFF70FFB044619
:101DD00038E034E0FFF70AFB074604E0FFF706FBB4
:101DE000C01B02282BD828688001F7D4206AB0F5E0
:101DF000803F05D16868A16820F40030084368601E
:101E0000D4E908010843696821F474110843686043
:101E1000C6F86090FFF7EAFA044606E025E000BF46
:101E2000FFF7E4FA001B022809D828688001F7D5DB
:101E30001BE000BFFFF7DAFA001B022802D90320DB
:101E4000BDE8F88F28688001F4D40EE00128F7D0AF
:101E50006868226A00F48031914204D1616A00F41A
:101E60007010884201D00120EAE70020E8E7000076
:101E70000010024000004242800442420001002063
:101E80000070004070B5040009D0606A002540B1C0
:101E900025616561A56294F8510040B10CE0012014
:101EA00070BD6068B0F5827FF4D0E561F2E784F838
:101EB0005050204600F040F8022084F8510020687D
:101EC000016821F040010160A088218900F482703E
:101ED00001F404410843A18901F400610843217C15
:101EE00001F002010843217D01F001010843218B2B
:101EF00001F400710843217F01F03801084394F890
:101F0000201001F080010843218D01F400510843A5
:101F100021680860A069042101EA10402168486036
:101F20002068C16921F40061C1616565012084F800
:101F30005100002070BD000030B585B00024009431
:101F400001940294039400681449884223D11448F0
:101F5000816941F480518161816901F4805104916A
:101F6000816941F00401816180690E4D00F0040037
:101F70000490A02000900220019003200390694665
:101F80002846FFF735F94020CDE900046946284688
:101F90000294FFF72DF905B030BD0000003001407C
:101FA00000100240000801402DE9F84F98461646FF
:101FB0008A460446FFF71AFA814694F85100012830
:101FC0001ED1BAF1000F73D0002E71D094F85000DA
:101FD000012815D0012784F85070032084F851009F
:101FE00000256565C4F830A0A686E686A563A587AA
:101FF000E58765642564A068B0F5004F03D00CE068
:102000000220BDE8F88F2068016821F040010160DE
:102010002068016841F48041016020680168490638
:1020200003D4016841F040010160E068B0F5006F41
:10203000606803D048B3012E27D047E008B1012ED5
:102040001FD1206B21680088C86006E02068816885
:10205000890709D5216B0988C160206B801C20632A
:10206000E08E401EE0860CE0FFF7C0F9A0EB09010E
:10207000414503D3B8F1FF3F03D035E0B8F1000F7D
:1020800032D0E08E0028E1D123E0206B2168007877
:10209000087306E02068816889070AD5216B0978F2
:1020A0000173206B401C2063E08E401EE0860DE033
:1020B0002BE0FFF79BF9A0EB0901414503D3B8F1F1
:1020C000FF3F03D010E0B8F1000F0DD0E08E0028E4
:1020D000E0D14A464146204601F006F908B12020E9
:1020E0006065A06830B109E084F8517084F8505000
:1020F000032086E72068C1688068009084F85170EA
:1021000004F8505F60680028F3D0012079E72DE9DA
:10211000FF4F81B01D46934604464FF001090E9EC5
:10212000FFF764F9074694F851006168012806D06A
:10213000B1F5827F3CD1A168C9BB042838D102988F
:10214000002871D0BBF1000FFBD0002DF9D094F81E
:10215000500001282CD04FF0010A84F850A094F8C8
:102160005100042802D0052084F851004FF00008E7
:10217000C4F85480C4F838B0E587A5870299216374
:10218000E586A586C4F84080C4F8448020680168CC
:10219000490603D4016841F040010160E068B0F5F0
:1021A000006F606808D0F0B3012D49D081E0FFE7EF
:1021B000022005B0BDE8F08F08B1012D39D1206BA8
:1021C00021680088C860206B801C2063E08E401E60
:1021D000E0862EE02068816889070FD5E18E69B11D
:1021E000B9F1010F0AD1216B0988C160206B801CF5
:1021F0002063E08E401EE0864FF000092068816871
:10220000C9070CD0E18F51B1C068A16B0880A06BE9
:10221000801CA063E08F401EE0874FF00109FFF7AC
:10222000E5F8C01B01E00BE067E0B04201D3701C91
:1022300050D1E08E0028CDD1E08F0028CAD13EE0F9
:10224000206B216800780873206B401C2063E08EAF
:10225000401EE0862DE02068816889070FD5E18E59
:1022600069B1B9F1010F0AD1216B09780173206BB3
:10227000401C2063E08E401EE0864FF0000920687D
:102280008168C9070CD0E18F51B1C068A16B08709B
:10229000A06B401CA063E08F401EE0874FF0010957
:1022A000FFF7A4F8C01BB04202D3701C01D011E0AC
:1022B00086B1E08E0028CED1E08F0028CBD13A46FF
:1022C0003146204601F010F850B12020606584F8B6
:1022D000508012E084F851A084F85080032068E711
:1022E000A06818B92068C1688068009084F851A07F
:1022F00084F85080606D0028F1D0012059E710B5B6
:10230000401EB0F1807F01D3012010BD4FF0E024CA
:1023100060610F21601701F001FD0020A06107201E
:102320002061002010BD000070B590F83C20012A0B
:1023300026D0012480F83C40022280F83D2003682A
:102340005A689D6822F070060A6832435A600D4B45
:1023500002689A4208D0B2F1804F05D00A4B9A42E7
:1023600002D00A4B9A4204D1496825F080031943F0
:10237000916080F83D40002180F83C10084670BD17
:10238000022070BD002C0140000400400008004005
:1023900010B5040003D094F83D0010B107E001200F
:1023A00010BD002084F83C00204600F01FF80220F9
:1023B00084F83D00211D206801F088F9012084F88F
:1023C000460084F83E0084F83F0084F8400084F81A
:1023D000410084F8420084F8430084F8440084F803
:1023E000450084F83D00002010BD000008B50068DD
:1023F000B0F1804F08D10548C16941F00101C161C8
:10240000C06900F00100009008BD0000001002400B
:1024100070B5044690F83C000025012817D001262D
:1024200084F83C60022084F83D002068826822F035
:10243000770222F47F4282600868502838D00DDC91
:1024400020284FD005DC90B3102811D14AE002209B
:1024500070BD302846D040280AD13BE060282FD0FC
:1024600070280DD0B0F5805F03D0B0F5005F12D0BA
:10247000012584F83D60002084F83C00284670BDAA
:10248000CB68D1E90121206801F05CF920688168FE
:1024900041F0770109E0CB68D1E90121206801F022
:1024A00051F92068816841F480418160E1E719E0D9
:1024B000CA684968206801F0F9F95021206806E0EF
:1024C000CA684968206801F002FA6021206801F0BA
:1024D00043F9CEE7CA684968206801F0E7F940216E
:1024E0002068F4E7226801461046F0E770B504461C
:1024F00090F83C0000260D4601280FD0012084F8FA
:102500003C006AB1042A1DD0082A2FD00C2A3FD0E3
:102510000126002084F83C00304670BD022070BDCA
:10252000206801F021F92068816941F0080181618A
:102530002068816921F004018161206881692A692C
:10254000114311E0206801F037F92068816941F4F6
:10255000006181612068816921F480618161206866
:1025600081692A6941EA02218161D2E7206801F08C
:102570004FF92068C16941F00801C1612068C16953
:1025800021F00401C1612068C1692A69114311E089
:10259000206801F069F92068C16941F40061C161F6
:1025A0002068C16921F48061C1612068C1692A691C
:1025B00041EA0221C161ACE710B5040003D094F8F0
:1025C0003D0010B107E0012010BD002084F83C0060
:1025D000204600F01EF8022084F83D00211D2068EE
:1025E00001F074F8012084F8460084F83E0084F875
:1025F0003F0084F8400084F8410084F8420084F8E9
:10260000430084F8440084F8450084F83D0000202D
:1026100010BD704770B5040004D094F84100002547
:1026200010B106E0012070BD84F84050204600F053
:1026300023F8242084F841002068C16821F4005167
:10264000C160204601F07CF92068016921F49041C5
:1026500001612068416921F02A0141612068C16857
:1026600041F40051C1606564202084F8410084F881
:1026700042006563002070BD2DE9F04786B000255B
:102680000646009501950295039500683B49DFF8E1
:10269000F0903C4C02274FF4806A4FF003088842C8
:1026A0001FD1A06940F48040A061A06900F480407F
:1026B0000490A06940F00400A061A069CDF80C80EE
:1026C00000F0040004904815CDE90007694648462B
:1026D000FEF78EFDCDE900A5694648460295FEF756
:1026E00087FD29493068884220D1E06940F40030F4
:1026F000E061E06900F400300490A06940F004005B
:10270000A061A069694600F0040004900420CDE9AE
:102710000007CDF80C804846FEF76AFD0820CDE999
:102720000005694648460295FEF762FD1749306884
:1027300088421FD1E06940F48020E061E06900F444
:1027400080200490A06940F00800A061A069104CAE
:1027500000F00800CDE90380CDE900A769462046D6
:10276000FEF746FDE014CDE90005694620460295D6
:10277000FEF73EFD06B0BDE8F087000000380140DE
:1027800000080140001002400044004000480040A2
:10279000000C01402DE9F843044690F841009846AA
:1027A00016460D46202802D00220BDE8F88385B1E8
:1027B0007EB100206064212084F84100FEF716FEFF
:1027C000A6848146E684A0682027B0F5805F02D009
:1027D00003E00120E9E7206910B12E4600250EE054
:1027E00000260CE08021204601F006F9A8B9C6B108
:1027F00016F8010B21684860E08C401EE084E08CF4
:102800004B464FF00002CDF800800028EAD14FF08F
:102810004001204601F0F0F840B184F841700320F7
:10282000C3E735F8020BC0F30800E3E784F8417012
:102830000020BAE7054800680168890602D54068AB
:10284000C0B270474FF0FF307047000074060020A0
:1028500010B500F049FC07A001F02CFA4FF4FA7013
:10286000FEF7B4FC0FA000F035F8BDE8104012A050
:1028700001F020BA5B48432D30355D20426C756510
:10288000746F6F7468207265616479206F6E205573
:10289000534152543220283936303020384E3129B5
:1028A0000D0A00004D6F6F6E4361742076322E303A
:1028B00020526561647900005B48432D30355D200E
:1028C000426F6F74206D6573736167652073656E09
:1028D000740D0A000FB400B5A1B023AA684622996E
:1028E00001F00AFA00280BDD82B26423694606482B
:1028F000FFF750FF6423022204490348FFF74AFF11
:1029000021B05DF814FB000074060020A8EB00085D
:102910002DE9F04188B00026FFF78CFF002803DA8C
:10292000002008B0BDE8F0815A4C5B4D542828D0F7
:1029300014DC352872D008DC312851D032285AD026
:1029400033286ED0342829D173E0362868D0462841
:102950001DD048280DD05328F5D126E0732824D067
:1029600008DC572871D05A2819D066280FD068285B
:10297000E9D18AE0742804D0772878D07A28E2D187
:102980000DE001261E20FDF719FF44A004E00226F9
:102990001E20FDF713FF45A001F08CF978E0032617
:1029A0001E20FDF70BFF44A0F6E71422464902A8BB
:1029B000FDF7C8FB00F0DEFD804600F0C5FD0746D0
:1029C00000F0DAFB02A92A8851F820102088CDE90E
:1029D000000243463A463DA0FFF77CFF45A0DBE7F7
:1029E00000F0C8FD014647A0FFF774FF00F0C2FDEC
:1029F000014646A01AE000F0A7FD044600F0BAFD2B
:102A00000146224645A0FFF765FF00F09DFD044604
:102A100000F0B0FD0146224645A033E016E000E09C
:102A200019E02088323081B2218008E001F042F9BB
:102A30002EE02088642801D33238208081B241A062
:102A4000FFF748FF218841A0F0E710E028883230E6
:102A500081B2298005E02888642801D33238288093
:102A600081B23EA0FFF736FF29883EA0DEE71E2098
:102A7000FDF7A4FEFEF76AF83EA0FFF72BFF2A88B9
:102A800021883FA001F016F902E045A0FFF722FFE0
:102A9000304646E71E0000201A0000205B42542DFD
:102AA000544F5543485D0D0A000000005B42542D11
:102AB000464545445D0D0A005B42542D534C454547
:102AC000505D0D0A00000000ACEB00085374617407
:102AD000653D2573204C44523D2564204E54433DB2
:102AE000256420686F743D2564206461726B3D2508
:102AF000640000005B42542D5354415455535D0D06
:102B00000A00000054454D503D2564005B42545D71
:102B10002054454D503D25640D0A000054454D504C
:102B20003D2564204C494748543D25640000000081
:102B30005B42545D20543D2564204C3D25640D0AC4
:102B400000000000686F743D256400005B42545D26
:102B500020686F743D25640D0A0000006461726B8B
:102B60003D2564005B42545D206461726B3D2564C9
:102B70000D0A00004F4B2073617665640000000071
:102B80005B42545D2073617665643A20686F743DE2
:102B90002564206461726B3D25640D0A000000000D
:102BA000742F662F7A3D70657420313D74656D70A9
:102BB00020323D616C6C20332F343D686F742B2DB7
:102BC00020352F363D6461726B2B2D20733D73745D
:102BD0006174757300000000FEE701684A69D24322
:102BE00052050FD46FF480624A61002140F8301F13
:102BF000202242738173026942F004020261017370
:102C00000120704700207047F8B50446C06A1E4690
:102C10000D461746082807D0012805D010F5803F3B
:102C200002D0206B122804D12068016841F4807121
:102C30000160134600224FF001112046009600F07B
:102C40005DF840B120680068C00502D54FF40070FF
:102C500020640320F8BD2069B0F5804F0ED0062017
:102C6000216800EAD51040F0F000086133463A468A
:102C70000B49204600F08AF878B902E005F0FE0022
:102C800000E0E8B221680861054933463A46891FE9
:102C9000204600F07BF80028DCD00120F8BD0000C1
:102CA0000800010070B516460D4604461EE0204699
:102CB000FFF793FF08B1012070BD681C16D0FEF726
:102CC00095FB801BA84200D885B920684069C043A5
:102CD00040070BD5002044F8300F20216173A0730A
:102CE000216941F0200121612073E4E720684069F7
:102CF000C0434007DBD4002070BD00002DE9F04741
:102D0000984617460D460446C1F30746DDF8209065
:102D10002AE000BFB8F1FF3F26D0FEF767FBA0EB2B
:102D20000901414502D8B8F1000F1DD12068012EDC
:102D300016D0806925EA00000004000C12D00020A3
:102D4000B84211D1002044F8300F20216173A073E4
:102D5000216941F02001216120730120BDE8F08745
:102D60004069E7E70120EBE72068012E0AD080697F
:102D700025EA00000004000C06D00020B842C9D0AB
:102D80000020EBE74069F3E70120F7E72DE9F04782
:102D9000984616460D4604464FF000094FF0200AAB
:102DA000C1F3074723E020684069C043400515D4BC
:102DB0002068016841F40071016021686FF480604F
:102DC0004861C4F8309084F83DA084F83E90216CAE
:102DD00041F00401216484F83C9021E0701C06D08D
:102DE000FEF704FBA0EB0800B04203D816B1012F98
:102DF0001FD021E02068012F15D0806925EA00004E
:102E00000004000C18D000BF44F8309F84F80DA0D7
:102E100084F80E90216941F02001216184F80C9022
:102E20000120BDE8F087406925EA00000004000C9D
:102E3000EAD12068406901E02068806925EA000045
:102E40000004000CAFD1ECE770B516460D46044601
:102E50001EE02046FFF7C1FE08B1012070BD681CCE
:102E600016D0FEF7C3FA801BA84200D885B92068A7
:102E70004069C04300060BD5002044F8300F2021E4
:102E80006173A073216941F0200121612073E4E79F
:102E900020684069C0430006DBD4002070BD0000FC
:102EA000FEB5002416480094019414490294016070
:102EB00089158160012505730475022606614FF4AA
:102EC00060214460C161FDF7AFFF08B1FDF7A2FDCD
:102ED00007200094CDE9015069460948FDF722FF1B
:102EE00008B1FDF797FDCDE9005669460448FDF7A6
:102EF00019FF002801D0FDF78DFDFEBD0024014023
:102F00000805002070B586B000241C480094019488
:102F100002940394816941F010018161816901F09B
:102F200010010491816941F020018161816901F002
:102F300020010491816941F004018161816901F0FE
:102F400004010491816941F00801816180690C4E9E
:102F500000F008004FF40055049000222946304646
:102F6000FEF73EFA01200095CDE90104022003900E
:102F700069463046FEF73CF906B070BD00100240CD
:102F8000001001400D4810B50B4901600C4941602B
:102F900000214FF480428160C0E9031241618161E8
:102FA000C1610162FEF728FA002803D0BDE8104095
:102FB000FDF730BD10BD0000005400403805002072
:102FC000801A0600104810B50E4901604FF4827156
:102FD000416000218160C1604FF400720161C0E96D
:102FE00005120822C0E90721416281620A21C162FB
:102FF000FEF748FF002803D0BDE81040FDF70ABDEA
:1030000010BD0000003001408C05002010B58EB0CE
:1030100000240794089409940A940B941C21684690
:103020000C94FDF7A8F821484FF08041016047213A
:10303000C0E9011440F2E731C0E903148461FFF7ED
:10304000A7F908B1FDF7E6FC4FF48050079007A9F7
:103050001648FFF7DDF908B1FDF7DCFC1348FFF770
:10306000ABFA08B1FDF7D6FC0B940BA90F480C94F2
:10307000FFF75AF908B1FDF7CDFC6020CDE9000457
:1030800002940022694609480494FFF72FFA08B118
:10309000FDF7C0FC082269460448FFF727FA00281C
:1030A00001D0FDF7B7FC0EB010BD0000E405002014
:1030B0000C4810B50A4901604FF4E131416000212C
:1030C00081600C22C160C0E904128161C161FFF717
:1030D000A1FA002803D0BDE81040FDF79BBC10BD4D
:1030E000003801402C0600200C4810B50A49016048
:1030F0004FF416514160002181600C22C160C0E98B
:1031000004128161C161FFF785FA002803D0BDE890
:103110001040FDF77FBC10BD004400407406002045
:103120000C4810B50A4901604FF4E13141600021BB
:1031300081600C22C160C0E904128161C161FFF7A6
:1031400069FA002803D0BDE81040FDF763BC10BD4C
:1031500000480040BC060020FEE7FEE77047000084
:103160000148C0787047000040000020014890F9F5
:1031700004007047400000200148007870470000BC
:103180004000002070B5044C00252570FEF72EF994
:10319000A060E57070BD0000400000202DE9F04700
:1031A000154689460446FEF721F90123022700222D
:1031B0004C494FF0030C41F288364FF00408012DC2
:1031C00004D0022D09D0032D1AD00FE08D786DB9EF
:1031D0000D784D7081F800C004E08D7835B90D7818
:1031E0004D700B708519C1E902058B708D78A5B102
:1031F000CD68A8420FD34D780D7088608A700CE0BE
:103200008D78002DF4D10D784D700F708519C1E9BE
:1032100002058B70ECE78D78ADBB8D68451BB54220
:1032200031D30D78B9F1020F02D0042D07D008E098
:10323000022D06D0042D04D081F8008000E00A7031
:1032400088606CB90D78042D0AD00C6904B9086146
:103250000C69041BB44216D3022D14D00F7011E078
:103260000A610D78022D01D10A7088605CB10C787A
:10327000022C08D0042C06D02CB18C68041BB4425C
:1032800001D30A708860FF240C710D784FF4FA7432
:10329000052D05D2DFE805F003060D151D00CA70E7
:1032A000BDE8F087CB708B68C01AA042F8D20A71D3
:1032B000F6E7CF708A68801AA042F1D281F804C084
:1032C000EEE781F803C08A68801AA042E8D20B7149
:1032D000E6E781F803808A68801AA042E0D20F7185
:1032E000DEE7000040000020F8B515460E460B460C
:1032F000009204460122022100F010F840B9334642
:10330000002280212046009500F008F8002804D013
:10331000606D40F0200060650320F8BD2DE9F843A2
:103320001E46914688460446089DFEF75FF8401BFE
:10333000351AFEF75BF8074625480068C0F3CB3026
:10334000684338E0701C37D0FEF750F8C01BA84225
:1033500003D215B1009860B32CE02068416821F0D9
:10336000E00141606068B0F5827F0BD1A068B0F5E4
:10337000004F02D0B0F5806F04D12068016821F0C1
:1033800040010160A06AB0F5005F09D120680168C2
:1033900021F4005101602068016841F4005101608E
:1033A000012084F85100002084F850000320BDE87B
:1033B000F8830025401E00902068816838EA0100EB
:1033C00004D000214945BDD10020F0E70121F9E7F3
:1033D000000100204FF480610148FCF7CCBE0000E2
:1033E0000801002010B5AE2000F088F8D52000F0CC
:1033F00085F8802000F082F8A82000F07FF83F20B8
:1034000000F07CF8D32000F079F8002000F076F886
:10341000402000F073F88D2000F070F8142000F0C8
:103420006DF8202000F06AF8022000F067F8A12073
:1034300000F064F8C82000F061F8DA2000F05EF8CF
:10344000122000F05BF8812000F058F8CF2000F047
:1034500055F8D92000F052F8F12000F04FF8DB20A9
:1034600000F04CF8402000F049F8A42000F046F8A5
:10347000A62000F043F82E2000F040F8AF2000F026
:103480003DF8FFF7A7FFBDE8104000F001B80000CD
:103490002DE9F0410D4F002444F0B00000F02EF86B
:1034A000002000F02BF8102000F028F807EBC416DD
:1034B0000025705D00F032F86D1CEDB2802DF8D360
:1034C000641CE4B2082CE7D3BDE8F08108010020B9
:1034D00010B580280FD240290DD2CB0800EBC313C2
:1034E0000548012401F007018C40C15C0AB1214369
:1034F00000E0A143C15410BD080100201CB500210B
:1035000001918DF805000A200090022301AA78217C
:103510000148FEF735F81CBD380500201CB507A191
:103520000223096801918DF805000A20009001AA84
:1035300078210348FEF724F81CBD0000400000007D
:10354000380500207047000001484089704700009E
:1035500018000020064841894288914201D9002084
:1035600070478088814201D2022070470120704755
:1035700018000020014880897047000018000020D2
:1035800006488189C288914201D202207047008991
:10359000814201D9002070470120704718000020A7
:1035A00008B5054801890091C3888288418803A035
:1035B00000F080FB08BD0000180000205B53454E62
:1035C000534F525D20454D412066696C74657220F1
:1035D00072656164792C207468726573686F6C64BD
:1035E000733A204C44523D25642F2564204E5443A9
:1035F0003D25642F25640D0A0000000010B5002051
:1036000001F024F80446012001F020F80E490A7860
:10361000A2B1CA8904EB440302EB82021A44D20825
:10362000CA810A8A00EB400002EB82021044C00803
:103630000882C8894881088A888110BDCC810882A7
:1036400001200870F5E7000018000020FEF75CB8C4
:1036500030B593B028216846FCF78DFD14210AA8E7
:10366000FCF789FD002501200F95109511950104A7
:1036700012958DE8230004904FF4E010CDE9081076
:10368000022407946846FEF76DFA08B172B6FEE7A9
:103690000AA90F2081E831004FF48060CDE90D05C3
:1036A00002210AA8FEF782F908B172B6FEE74FF4CC
:1036B000004011900F940FA8FEF702F9002801D0E6
:1036C00072B6FEE713B030BD70470000F0B5026877
:1036D000194B1A4C1A4D4FF08047984205D0B8420A
:1036E00003D0A04201D0A84203D122F070064A685C
:1036F0003243984205D0B84203D0A04201D0A8423C
:1037000003D122F44074CA6822434C6922F080023B
:10371000224302608A68C2620A688262984201D1CA
:1037200009690163012141610169C90703D0016988
:1037300021F001010161F0BD002C014000040040B6
:103740000008004010B5846842EA032224F47F4454
:103750000A432243826010BD826822F070020A434D
:1037600042F007018160704730B5036A026A22F0B7
:10377000010202624268846924F073050C682C43DC
:1037800023F002058B682B430A4DA8420BD123F08E
:103790000805CB6822F440722B434D6923F00403E3
:1037A00015438A692A434260846149684163036220
:1037B00030BD0000002C014030B5026A036A23F0DE
:1037C00010030362436884690D6824F4E64444EA04
:1037D00005248D6822F0200242EA05120B4DA84212
:1037E0000ED1CD6822F0800242EA05124D6923F421
:1037F000406343EA85038D6922F0400243EA850372
:103800004360846149688163026230BD002C0140DD
:1038100030B5036A026A22F4807202624268C469A7
:1038200023F4007324F073050C682C438D6843EA7D
:1038300005230C4DA8420ED1CD6823F4006343EA62
:1038400005234D6922F4405242EA05128D6923F4A2
:10385000806342EA05124260C4614968C163036241
:1038600030BD0000002C014030B5046A026A22F429
:10387000805202624268C3690D6823F4E64343EA5A
:1038800005238D6824F4005444EA0534064DA8420B
:1038900004D14D6922F4804242EA85124260C3613C
:1038A00049680164046230BD002C014010B5036A10
:1038B000046A24F001040462846924F0F00444EAF8
:1038C000021423F00A020A438461026210BD10B59B
:1038D000036A046A24F010040462846923F0A003DC
:1038E00024F4704444EA023243EA01118261016225
:1038F00010BD01680C3151E8002F22F4907241E8AC
:103900000023002BF5D10168143151E8002F22F07B
:10391000010241E80023002BF5D1016B012909D1F7
:1039200001680C3151E8002F22F0100241E8002319
:10393000002BF5D1202180F842100021016370474F
:1039400070B5044600680169E26821F440511143F2
:1039500001612169A0680843616908432168CA6858
:1039600041F20C639A430243CA6020684169A2692C
:1039700021F44071114341611E492068884202D1FF
:10398000FEF7BAF801E0FEF7A7F800EBC00101EB83
:103990000012606864218000B2FBF0F3B3FBF1F326
:1039A0006FF018067343B2FBF0F5B2FBF0F605EBCF
:1039B0008305322303EB0515B5FBF1F5B6FBF1F6F4
:1039C00005F0F00505EB0615B2FBF0F6B2FBF0F0E2
:1039D000B0FBF1F06FF01802504306EB800003EBF0
:1039E0000010B0FBF1F0216800F00F00284488605F
:1039F00070BD0000003801402DE9F8439846174695
:103A00000D460446089E24E0701C22D0FDF7EEFC13
:103A1000A0EB0800B0421AD8CEB12068C1684907AF
:103A200017D5802D15D0402D13D00168C943090743
:103A30000FD401680025406800902046FFF759FF29
:103A40000820606484F840500120BDE8F88303201A
:103A5000FBE72068006835EA000004D00020B84287
:103A6000D2D00020F1E70120F9E7FEE770B5044667
:103A70001148007800281ED001F072F90F4D002285
:103A800010212846FDF7ACFC202001F037F9C4F3E3
:103A9000074001F033F9C4F3072001F02FF9E0B239
:103AA00001F02CF9012210212846FDF799FCBDE810
:103AB000704001F03DB970BD3C000020000801409D
:103AC00070B586B010200124CDE901040320CDE9B2
:103AD0000340164E002501A93046FDF789FB01225F
:103AE00010213046FDF77CFC684600F087F89DF811
:103AF00000100F48EF290ED0C8290CD01F290AD07A
:103B000005709DF802309DF801200AA000F0D2F85F
:103B1000002006B070BD04709DF802309DF80120B1
:103B200013A000F0C7F80120F3E7000000080140EF
:103B30003C0000205B573235515D2049443A202536
:103B400030325820253032582025303258202D2050
:103B50004641494C45442028657870656374656426
:103B60002045462F31462F4338290D0A000000001A
:103B70005B573235515D2049443A20253032582078
:103B8000253032582025303258202D204F4B0D0A39
:103B9000000000002DE9F0410446164815460E4687
:103BA0000078002823D0144F002210213846FDF75A
:103BB00017FC032001F0A2F8C4F3074001F09EF8BF
:103BC000C4F3072001F09AF8E0B201F097F800245E
:103BD00004E0FF2001F09CF83055641CAC42F8D39F
:103BE0003846BDE8F04101221021FDF7F9BBBDE8E0
:103BF000F08100003C0000200008014070B50E4D2F
:103C00000446002210212846FDF7EAFB9F2001F020
:103C100075F8FF2001F07CF82070FF2001F078F8A3
:103C20006070FF2001F074F8A0702846BDE8704075
:103C300001221021FDF7D4BB000801402DE9F0411D
:103C400004461A4815460E46007800282CD04FF43A
:103C50008070854200D9054601F082F8144F002299
:103C600010213846FDF7BCFB022001F047F8C4F3F1
:103C7000074001F043F8C4F3072001F03FF8E0B239
:103C800001F03CF8002404E0305D01F037F8641CDA
:103C9000A4B2AC42F8D3012210213846FDF7A0FBB4
:103CA000BDE8F04101F044B8BDE8F0813C000020DF
:103CB000000801400FB4054B10B503A9044A02984F
:103CC00000F0FEF810BC5DF814FB0000354600085B
:103CD000040100207CB5491E1C461546CDE90001B3
:103CE000044B6A462146284600F0EAF8009A002173
:103CF00011707CBDEF45000837B514460846064BE9
:103D00006A46214600F0DCF804466946002000F0CF
:103D100079FC20463EBD0000054600080907090E53
:103D2000002804DB00F1E02080F80014704700F068
:103D30000F0000F1E02080F8141D704702E008C871
:103D4000121F08C1002AFAD170477047002001E015
:103D500001C1121F002AFBD1704700002DE9FF5F4F
:103D6000DDE90220010DDDF838B0024318D044F639
:103D70001050A1F2FF3141430D140F98012820D0BB
:103D8000A5EB0B00401C5FEA000A4FF00004474E11
:103D9000DFF81C91A046504616D5CAF1000728E06E
:103DA0000F98012443A2012808D0002100980F9BFE
:103DB000C0E90021C0E90243BDE8FF9F6FEA0B01A3
:103DC000F4E7CBF10000DEE7074612E0F80707D082
:103DD0002246334640464946FCF7E3FA8046894688
:103DE0002246334610461946FCF7DBFA04460E46D7
:103DF0007F10002FEAD1DDE90201BAF1000F42463F
:103E00004B4602DAFCF7CDFA01E0FCF73CFB044636
:103E10000E460022284BFCF7BDFB03D84FF0FF30C5
:103E2000014607E00022254B20463146FCF712FAF6
:103E3000FCF798FB102409E0002C0ADB0A2200237F
:103E4000FCF7D7F9019B30321A55641E50EA010283
:103E5000F2D1641C019AC4F1110314440F9A012A8F
:103E600003D0012208430DD10AE0084304D000200A
:103E70004FF0110B0F9080E7A3EB0B056D1E0DE0CB
:103E80005B4504DD4FF0000205F1010504E003DAB3
:103E90004FF00002A5F10105002AECD000980F991F
:103EA000C0E90231C0E9004586E700000000244077
:103EB0000000F03F300000000000F0430000E03F51
:103EC0002DE9FF4F95B09B468946064600250FE237
:103ED000252877D100242746F84A0121059400E0DF
:103EE000044316F8013F203B01FA03F01042F7D1DA
:103EF00030782A2811D06FF02F033078A0F13002EB
:103F0000092A16D8059A44F0020402EB820203EB58
:103F100042021044761C0590EFE759F8042B0592F5
:103F2000002A03DA504244F40054059044F002049D
:103F3000761C30782E2816D116F8010F44F00404B0
:103F40002A280DD06FF02F023078A0F13003092B12
:103F500009D807EB870302EB4303C718761CF3E786
:103F600059F8047B761C30786C280FD006DC4C287E
:103F700017D068280DD06A2814D104E0742810D016
:103F80007A280FD10DE044F400140AE044F48014C0
:103F900001E044F440147278824202D104F58014A6
:103FA000761C761C307866280BD013DC582877D026
:103FB00009DC002875D04528F6D04628F4D04728DB
:103FC0001AD19DE118E0632835D0642879D065289E
:103FD00012D195E1702873D008DC6728F1D06928E8
:103FE0006FD06E280DD06F2806D1B5E073282CD085
:103FF000752875D0782874D05A46179990476D1C4B
:1040000075E1C4F30250022809D003280DD0D9F875
:10401000001004280DD00D6009F1040967E1D9F8FA
:104020000010EA17C1E90052F6E7D9F800100D8038
:10403000F2E70D70F0E719F8041B8DF8001000206E
:104040008DF80100EA46012003E059F804AB4FF077
:10405000FF3061074FF0000102D40DE008F10101CB
:104060008846B9420FDA8045F8DB1AF808100029B3
:10407000F4D108E008F1010188468142FADB1AF820
:1040800008100029F6D105985B46A0EB08072146E9
:104090003846179A00F094FA284400EB080507E028
:1040A0004DE029E10DE01AF8010B5A4617999047A7
:1040B000B8F10108F7D25B4621463846179A13E15A
:1040C00042E00A220092C4F302524FF0000A022A90
:1040D00008D059F804CB032A4FEAEC710AD00DE05E
:1040E00029E02AE009F1070121F00702F2E802C104
:1040F000914609E00FFA8CFC4FEAEC71042A03D1D7
:104100004FFA8CFC4FEAEC71002907DA0A460021CD
:10411000DCF1000C61EB02012D2202E0220504D546
:104120002B228DF80420012203E0E20701D0202297
:10413000F7E7904659E00A2102E010220DE0102135
:104140004FF0000A00910BE010224FF0000A44F0FB
:1041500004040827009203E008224FF0000A0092AE
:10416000C4F30252022A05D059F804CB0021032AD5
:1041700008D009E009F1070121F00702F2E802C1C5
:10418000914605E01FFA8CFC042A01D10CF0FF0CCB
:104190004FF00008220728D5702806D0009B83F036
:1041A000100353EA0A0305D00EE040228DF80420E4
:1041B000012208E05CEA010206D030228DF80420DA
:1041C0008DF8050002229046009B83F0080353EA15
:1041D0000A030AD15CEA010201D1620705D5302247
:1041E0008DF804204FF001087F1E582804D034A019
:1041F00003900EA802900DE036A0F9E75346604602
:10420000009AFBF7F6FF84460398825C0298401EF2
:10421000029002705CEA0100F0D1029806A9081A27
:1042200000F1200A600702D524F4803400E0012761
:10423000574502DDA7EB0A0000E0002000EB0A0171
:10424000009005984144401A0590E00306D45B466F
:104250002146179A059800F0B3F90544002706E0B7
:1042600001A85A46C05D179990476D1C7F1C4745B1
:10427000F6DBE0030CD55B462146179A059800F063
:104280009FF9054404E030205A46179990476D1C69
:104290000099481E00900029F5DC08E00298029978
:1042A0005A460078491C0291179990476D1CBAF143
:1042B0000001AAF1010AF1DC65E100000928010012
:1042C000303132333435363738396162636465668C
:1042D000000000003031323334353637383941424E
:1042E000434445460000000000F058F90544761CA0
:1042F000307800287FF4ECAD19B02846BDE8F08F87
:10430000620700D4062709F1070222F0070CFCE837
:104310000223E14603F000485FEA080C02D00FF2E6
:10432000702C0DE05FEA045C02D50FF2682C07E008
:104330005FEAC47C02D00FF2602C01E0AFF2700C97
:104340004FF0FF3823F00043CDF850C065280CD063
:1043500006DC452809D046281DD047283DD13DE040
:10436000662818D067287ED138E00021112F01DBA4
:10437000112000E0781CCDE9000106A90EA8FFF786
:10438000EDFCDDE90F010E9A03910021009207F187
:10439000010A04914DE04FF000400097CDE9011073
:1043A00006A90EA8FFF7DAFCDDE90F0203920E9BC7
:1043B00011990022DDF80CA00093049211B9791C28
:1043C00000EB010AB7EB0A0004D4C0F1FF3007F19B
:1043D000010A0490AAEB0700019044E0012F00DAE3
:1043E00001270021112F01DD112000E03846CDE921
:1043F000000106A90EA8FFF7B1FCDDE90F010E9A36
:104400000391002104910092BA4621070CD403992C
:10441000514500DA8A46BAF1010F05DD009AAAF18A
:104420000101515C302908D0B84202DA10F1040FC2
:1044300006DA0121CDE9011015E0AAF10101E9E751
:10444000002805DC049901440491AAEB000102E074
:10445000411C514500DD8A460499401A401C0190D8
:104460004FF000400290200704D40198504501DB32
:10447000CDF8048000208DF84F0002980DF14F0711
:10448000B0F1004F25D02B200E9002984FF002087B
:1044900000280CDA404202902D200E9007E00A21FD
:1044A0000298FBF790FE3031029007F8011DB8F139
:1044B0000001A8F10108F2DC02980028EFD1791E72
:1044C0000E980870307800F0200040F0450007F8A2
:1044D000020D12A8C01B00F107081498007800B163
:1044E000012000EB0A01019801EBE07105984144BD
:1044F000401A401E0590E00306D45B462146179AF9
:10450000059800F05DF805441498007818B15A46F3
:10451000179990476D1CE00324D55B462146179AF6
:10452000059800F04DF805441CE00498002807DBCE
:10453000DDE90301884203DD0098405C179901E042
:10454000179930205A469047049805F10105401C00
:1045500004900198401E019004D12E205A461799CC
:1045600090476D1CBAF10001AAF1010ADDDC05E0FB
:1045700017F8010B5A46179990476D1CB8F10001C6
:10458000A8F10108F4DC5B462146179A0598ABE6D2
:104590002D0000002B000000200000002DE9F0415C
:1045A000044600251E461746880404D405E0394613
:1045B0002020B0476D1C641EF9D52846BDE8F08167
:1045C0002DE9F041044600251E469046C80301D55A
:1045D000302700E02027880404D505E0414638460E
:1045E000B0476D1C641EF9D52846BDE8F0814A68C5
:1045F000002A06D00A68531C0B6010704868401EE1
:10460000486070470A68531C0B60107070470000C8
:10461000012211460148FCF7E3BE0000000C0140F6
:10462000024600200146535C491C58400C29FADB25
:104630007047000013B50A23012269460248FEF7BD
:10464000A9F800981CBD00002C060020FEB51349F7
:10465000002406468C600C7301254FF460200D6128
:10466000C8610846FCF7E0FB07200096CDE9015041
:1046700069460A48FCF756FB0848FCF72DFD642103
:104680000648FCF78BFC18B90448FCF7C9FB84B258
:104690000248FCF781FD2046FEBD00000805002011
:1046A0008CB0FDF739F8FEF7D3FFFEF72BFCFEF7D1
:1046B000F7FBFEF767FCFEF785FCFEF7A7FCFEF7AD
:1046C000F7FCE2A0FFF7F6FAE9A0FFF7F3FAEEA095
:1046D000FFF7F0FAF4A0FFF7EDFAFEF783FEFFF71D
:1046E000EFF9FCF799F9FEF75BFFFCF779F8FEF7B5
:1046F000AFF8FCF7C7F8FEF745FDFCF783FAF3A225
:1047000000211420FCF7EBFA0A237F22194600202F
:10471000FCF7A8FAF1A210210020FCF7E0FAF4A2BD
:104720001A210020FCF7DBFAF6A22D211E20FCF74F
:10473000D6FAFCF7F2FA4FF49660FCF747FD6420D6
:10474000FCF73CF8F2A0FFF7B5FAF8A0FFF7B2FAD1
:10475000DFF808B44FF4FA7ADFF80484FCF746FE79
:1047600004465D4663E04068C0B25A283AD012DC85
:10477000522845D008DC2D284FD03D2847D0462868
:1047800022D0482853D18CE0532827D0542813D066
:1047900057284CD12EE0732820D006DC662813D091
:1047A00068287ED0722842D12AE0742804D0772865
:1047B00020D07A283BD115E0012188F800101E2076
:1047C000FBF7FCFFE7A006E0022188F800101E209E
:1047D000FBF7F4FFE6A0FFF76DFA28E00020C8F829
:1047E0000C0024E0032188F800101E20FBF7E6FFF0
:1047F000E2A0F0E7FCF7AAF91E20FBF7DFFF16E0C6
:10480000FCF772F96420FBF7D9FFDFA0E3E7E54A84
:104810001088323081B2118006E0E24908886428AD
:1048200001D33238088081B2DFA0FFF743FA28684D
:104830000168890697D4FEF76BF808B188F8000084
:10484000FCF742F808B188F80000D8F804004546A3
:10485000201A504502D36C60FEF7D0FE2869201A5A
:10486000C82812D32C61FEF78BFE0646FEF772FEB7
:104870002A783146FEF792FC00202870FEF776FC7D
:10488000002802DBC0B2FBF7BBFF9626FEF768FCF0
:1048900005281DD200E004E0DFE800F01A14161924
:1048A0001900C8A0FFF706FACEA0FFF703FAD4A0BC
:1048B000FFF700FAD9A0FFF7FDF9DFA0FFF7FAF93B
:1048C0007BA088E7642603E04FF4967600E050264C
:1048D0006869A846201AB0425DD345464FF00609E4
:1048E000C8F81440FEF73CFCA978884205D00020A7
:1048F00088F80100FEF734FCA870FEF731FC0528AB
:1049000040D2DFE800F003050C141B00CF4916E08D
:10491000CF4998F8010051F820600B2005E0CD49FF
:1049200098F8010051F820600C2081460BE0CA493C
:1049300098F8010051F820600420F6E7C74998F87C
:10494000010051F82060D6B15FF0000505F1B0001C
:10495000C0B2FEF7D3FD0020FEF7D0FD1020FEF719
:10496000CDFD002707EBC510305CFEF7D7FD7F1C9F
:10497000FFB2802FF6D36D1CEDB2082DE6D3B9F14E
:10498000000F08D098F80100401CB0FBF9F309FBB8
:10499000130088F801005546FEF7E2FB05280CD20B
:1049A000DFE800F00B0305080A00C82505E040F227
:1049B000DC5502E0642500E05025D8F808004646A2
:1049C000201AA84205D34FF40051A548B460FCF763
:1049D000FFFCF068211A41F28830814230D3142262
:1049E000A04901A8F460FBF7ADFB9E4914221431E5
:1049F00006A8FBF7A7FBFEF7BDFD0646FEF7A4FDE4
:104A00000746FEF7ADFB06A951F82040FEF7B4FBC0
:104A100001AD3B4655F82010224693A00096FFF7C3
:104A200049F9FEF7A7FD0446FEF78EFD0646FEF7A0
:104A3000A3FB55F820102346324695A0FBF7CAFF8A
:104A4000FBF7FCFE0A20FCF7C1FB87E63D3D3D3D40
:104A50003D3D3D3D3D3D3D3D3D3D3D3D3D3D3D3D86
:104A60003D3D3D3D3D3D3D3D3D3D3D3D0D0A000053
:104A7000202053544D3332204D6F6F6E43617420AC
:104A800076322E300D0A000020204D43553A205337
:104A9000544D33324631303343385436204020377A
:104AA000324D487A0D0A00003D3D3D3D3D3D3D3DC6
:104AB0003D3D3D3D3D3D3D3D3D3D3D3D3D3D3D3D26
:104AC0003D3D3D3D3D3D3D3D0D0A0A004D6F6F6E44
:104AD0004361742076322E30000000004F4C454474
:104AE000202053454E53202042555A5A00000000C2
:104AF000464C4153482046534D20202052454144C6
:104B000059000000426F6F74696E672E2E2E0000F0
:104B10000A3D3D3D2053797374656D20426F6F747B
:104B2000204F4B21203D3D3D0D0A0000436F6D6D30
:104B3000616E64733A20746F756368287429206607
:104B400065656428662920737461747573287329F8
:104B50002068656C702868290D0A0A002C06002060
:104B6000000000205B544F5543485D0D0A000000D3
:104B70005B464545445D0D0A000000005B534C4513
:104B800045505D0D0A0000005B52455345545D20C1
:104B900064656661756C747320726573746F726599
:104BA000640D0A001E0000205B4E54435D20686FB8
:104BB00074207468726573686F6C643A2025640DA4
:104BC0000A0000000D0A3D3D3D2043415420504560
:104BD0005420434F4D4D414E4453203D3D3D0D0A21
:104BE00000000000202074202D20746F7563682061
:104BF000202066202D20666565640D0A00000000F7
:104C000020207A202D20736C656570202020732071
:104C10002D207374617475730D0A000020207720B5
:104C20002D20736176652020202072202D20726552
:104C30007365740D0A00000020203D2F2D20616453
:104C40006A204E544320686F740D0A0054000020FF
:104C50007C000020A80000206C000020D80000206C
:104C600000100140884D00085B4341545D2053749F
:104C70006174653D257320416E696D3D2573204C3F
:104C800044523D2564204E54433D25640D0A0000E6
:104C90005354415455532C25732C25642C25640002
:104CA00070B5154CA068002825D0FCF79FFBE16883
:104CB000054688421FD32178A06830F8116046B1BC
:104CC000607860B10020607058B13046FBF776FD27
:104CD00009E00020A060BDE87040FFF799BC01200A
:104CE000F1E7FFF795FCA819E0606078002802D191
:104CF0002078401C207070BD2C00002001B564237A
:104D0000012269460148FDF74FF908BD8C050020D6
:104D100001B582B064200090012301AA02A90348D2
:104D2000FDF7F5F99DF804000EBD00008C0500208C
:104D300070B50A4C002210212046FCF751FB0520DB
:104D4000FFF7DCFFFF20FFF7E3FF054601221021FC
:104D50002046FCF745FBE807ECD170BD0008014098
:104D600010B5084C002210212046FCF739FB062024
:104D7000FFF7C4FF20460122BDE810401021FCF7D8
:104D80002FBB000000080140FCEB00081CEC0008F1
:104D900010EC000804EC000818EC000824EC0008F3
:104DA00044EC000838EC00082CEC000840EC00084B
:104DB0003C0000001E000000F0003C00F00000007D
:104DC00078003C0078003C00F0000000000000008B
:104DD0000000005F00000007000700147F147F142C
:104DE000242A7F2A12231308646236495522500070
:104DF00005030000001C2241000041221C00082A7B
:104E00001C2A0808083E080800503000000808085E
:104E10000808006060000020100804023E51494567
:104E20003E00427F400042615149462141454B319D
:104E30001814127F1027454545393C4A494930012D
:104E4000710905033649494936064949291E003684
:104E500036000000563600000008142241141414D5
:104E60001414412214080002015109063249794103
:104E70003E7E1111117E7F494949363E4141412212
:104E80007F4141221C7F494949417F090901013E77
:104E9000414151327F0808087F00417F4100204096
:104EA000413F017F081422417F404040407F02047F
:104EB000027F7F0408107F3E4141413E7F0909097E
:104EC000063E4151215E7F0919294646494949312B
:104ED00001017F01013F4040403F1F2040201F7FD4
:104EE0002018207F631408146303047804036151BD
:104EF00049454300007F4141020408102041417FA1
:104F0000000004020102044040404040000102044D
:104F10000020545454787F48444438384444442052
:104F2000384444487F3854545418087E0901020814
:104F30001454543C7F0804047800447D4000204011
:104F4000443D00007F10284400417F40007C04184D
:104F500004787C0804047838444444387C141414DD
:104F600008081414187C7C0804040848545454207D
:104F7000043F4440203C4040207C1C2040201C3CFE
:104F80004030403C44281028440C5050503C44646D
:104F9000544C44000836410000007F0000004136B8
:104FA000080008082A1C080000000000000000009B
:104FB00000000000000000000000000000000000F1
:104FC00000000000000000000000000000000000E1
:104FD00000000000000000000000000000000000D1
:104FE00000000000000000000000000000000000C1
:104FF00000000000000000000000000000000000B1
:1050000000000000000000000000000000000000A0
:105010000000000000000000000000000000000090
:105020000000000000000000000000000000000080
:105030000000000000000000000000000000000070
:105040000000000000000000000000000000000060
:105050000000000000000000000080E07018080858
:1050600018F0C0C0C0C080808080808080C0406058
:10507000203030E0000000000000000000000000D0
:105080000000000000000000000000000000000020
:105090000000000000000000000000000000000010
:1050A0000000000000000000000000000000000000
:1050B00000000000000000000000000000000000F0
:1050C00000000000000000000000000000000000E0
:1050D00000000000406030180C060300000000E0F3
:1050E000E00000000000000000C0E001000000003F
:1050F0000000041F38E080000000000000000000F5
:10510000000000000000000000000000000000009F
:10511000000000000000000000000000000000008F
:10512000000000000000000000000000000000007F
:10513000000000000000000000000000000000006F
:10514000000000000000000000000000000000005F
:105150000000000C0EC6F0A08080E030180C07871D
:10516000C36333131E040080C04F4F40C0000000D3
:1051700000000000808031670E0000000000000089
:10518000000000000000000000000000000000001F
:10519000000000000000000000000000000000000F
:1051A00000000000000000000000000000000000FF
:1051B00000000000000000000000000000000000EF
:1051C00000000000000000000000000000000000DF
:1051D0000000000000000000FF070000000C0E03AC
:1051E00000000000000000070C183232030282F8B1
:1051F0001E06060607070000000000000000000071
:10520000000000000000000000000000000000009E
:10521000000000000000000000000000000000008E
:10522000000000000000000000000000000000007E
:10523000000000000000000000000000000000006E
:10524000000000000000000000000000000000005E
:105250000000000000000080E73C000000000000AB
:1052600000000000000000000000000000000F30FF
:10527000C0C020203838003030800000000000001E
:10528000000000000000000000000000000000001E
:10529000000000000000000000000000000000000E
:1052A00000000000000000000000000000000000FE
:1052B00000000000000000000000000000000000EE
:1052C00000000000000000000000000000000000DE
:1052D000000000000000060F080C04060202020392
:1052E00003030202020202020202060606040C0C7A
:1052F000080D0F0303030303030100000000000077
:10530000000000000000000000000000000000009D
:10531000000000000000000000000000000000008D
:10532000000000000000000000000000000000007D
:10533000000000000000000000000000000000006D
:10534000000000000000000000000000000000005D
:10535000000000000000000000000000000000004D
:10536000000000000000000000000000000000003D
:10537000000000000000000000000000000000002D
:10538000000000000000000000000000000000001D
:10539000000000000000000000000000000000000D
:1053A00000000000000000000000000000000000FD
:1053B00000000000000000000000000000000000ED
:1053C00000000000000000000000000000000000DD
:1053D00000000000000000000000000000000000CD
:1053E00000000000000000000000000000000000BD
:1053F00000000000000000000000000000000000AD
:10540000000000000000000000000000000000009C
:10541000000000000000000000000000000000008C
:10542000000000000000000000000000000000007C
:10543000000000000000000000000000000000006C
:10544000000000000000000000000000000000005C
:105450000000000000000000000080E07018080854
:1054600018F0C0C0C0C080808080808080C0406054
:10547000203030E0000000000000000000000000CC
:10548000000000000000000000000000000000001C
:10549000000000000000000000000000000000000C
:1054A00000000000000000000000000000000000FC
:1054B00000000000000000000000000000000000EC
:1054C00000000000000000000000000000000000DC
:1054D00000000000406030180C060300000000E0EF
:1054E000E00000000000000000C0E001000000003B
:1054F0000000041F38E080000000000000000000F1
:10550000000000000000000000000000000000009B
:10551000000000000000000000000000000000008B
:10552000000000000000000000000000000000007B
:10553000000000000000000000000000000000006B
:10554000000000000000000000000000000000005B
:105550000000000C0EC6F0A08080E030180C078719
:10556000C36333139EC46060604FCF8000000000AF
:1055700000000000808031670E0000000000000085
:10558000000000000000000000000000000000001B
:10559000000000000000000000000000000000000B
:1055A00000000000000000000000000000000000FB
:1055B00000000000000000000000000000000000EB
:1055C00000000000000000000000000000000000DB
:1055D0000000000000000000FF070000000C0E03A8
:1055E000000000000001020E08183131230282F889
:1055F0001E0606060707000000000000000000006D
:10560000000000000000000000000000000000009A
:10561000000000000000000000000000000000008A
:10562000000000000000000000000000000000007A
:10563000000000000000000000000000000000006A
:10564000000000000000000000000000000000005A
:105650000000000000000080E73C000000000000A7
:1056600000000000000000000000000000000F30FB
:10567000F0F02020202020303050C000000000003A
:10568000000000000000000000000000000000001A
:10569000000000000000000000000000000000000A
:1056A00000000000000000000000000000000000FA
:1056B00000000000000000000000000000000000EA
:1056C00000000000000000000000000000000000DA
:1056D000000000000000060F080C0406020202038E
:1056E00003030202020202020202060606040C0C76
:1056F000080D0F0302020206020202000000000071
:105700000000000000000000000000000000000099
:105710000000000000000000000000000000000089
:105720000000000000000000000000000000000079
:105730000000000000000000000000000000000069
:105740000000000000000000000000000000000059
:105750000000000000000000000000000000000049
:105760000000000000000000000000000000000039
:105770000000000000000000000000000000000029
:105780000000000000000000000000000000000019
:105790000000000000000000000000000000000009
:1057A00000000000000000000000000000000000F9
:1057B00000000000000000000000000000000000E9
:1057C00000000000000000000000000000000000D9
:1057D00000000000000000000000000000000000C9
:1057E00000000000000000000000000000000000B9
:1057F00000000000000000000000000000000000A9
:105800000000000000000000000000000000000098
:105810000000000000000000000000000000000088
:105820000000000000000000000000000000000078
:105830000000000000000000000000000000000068
:105840000000000000000000000000000000000058
:1058500000000000000000000080E0301808087818
:10586000F0C0C0C0C0C0C08080808080C0606020A8
:105870003030E000000000000000000000000000E8
:105880000000000000000000000000000000000018
:105890000000000000000000000000000000000008
:1058A00000000000000000000000000000000000F8
:1058B00000000000000000000000000000000000E8
:1058C00000000000000000000000000000000000D8
:1058D000000000603018080C0603000000C0F02033
:1058E0000000000000000000C0E000000000000018
:1058F00000041F38E0C000000000000000000000AD
:105900000000000000000000000000000000000097
:105910000000000000000000000000000000000087
:105920000000000000000000000000000000000077
:105930000000000000000000000000000000000067
:105940000000000000000000000000000000000057
:1059500000000C0EE2F0808080E030180C0787E336
:1059600033111B0E0000C0406F6FC0C0000000006C
:10597000000000808031670C000000000000000083
:105980000000000000000000000000000000000017
:105990000000000000000000000000000000000007
:1059A00000000000000000000000000000000000F7
:1059B00000000000000000000000000000000000E7
:1059C00000000000000000000000000000000000D7
:1059D00000000000000000F93F0000000C0F010073
:1059E000000000000000070C1A12330303E0FE025F
:1059F000020606070300000000000000000000008F
:105A00000000000000000000000000000000000096
:105A10000000000000000000000000000000000086
:105A20000000000000000000000000000000000076
:105A30000000000000000000000000000000000066
:105A40000000000000000000000000000000000056
:105A500000000000000000FF18000000000000002F
:105A600000000000000000000000000000073FE010
:105A700060606060606060A08080000000000000E6
:105A80000000000000000000000000000000000016
:105A90000000000000000000000000000000000006
:105AA00000000000000000000000000000000000F6
:105AB00000000000000000000000000000000000E6
:105AC00000000000000000000000000000000000D6
:105AD000000000000000070F080C04060203030387
